:020000040800F2
:1000000000400220DD2D0008212C0008292C0008CA
:1000100000000000000000000000000000000000E0
:10002000000000000000000000000000312C00086B
:1000300000000000000000003B2C0008452C0008D8
:100040002D2E00082D2E00082D2E00082D2E000824
:100050002D2E00082D2E00082D2E00082D2E000814
:100060002D2E00082D2E00082D2E00082D2E000804
:100070002D2E00082D2E00082D2E00082D2E0008F4
:100080002D2E00082D2E00082D2E00082D2E0008E4
:100090002D2E00082D2E00082D2E00082D2E0008D4
:1000A0002D2E00082D2E00082D2E00082D2E0008C4
:0C00B0002D2E00082D2E00082D2E00081B
:1000BC0010B5064C2378002B07D1054B002B02D032
:1000CC00044800E000BF0123237010BDD4010020C0
:1000DC0000000000E48B0008044B10B5002B03D08B
:1000EC000349044800E000BF10BDC04600000000FA
:1000FC00D8010020E48B00080023C25C0133002AE5
:10010C00FBD1581E7047000002B4714649084900E3
:10011C00095C49008E4402BC7047C04603B471466A
:10012C00490840004900095E49008E4403BC7047F1
:10013C00002243088B4274D303098B425FD3030A1A
:10014C008B4244D3030B8B4228D3030C8B420DD32D
:10015C00FF22090212BA030C8B4202D312120902BB
:10016C0065D0030B8B4219D300E0090AC30B8B42F9
:10017C0001D3CB03C01A5241830B8B4201D38B03A7
:10018C00C01A5241430B8B4201D34B03C01A52414C
:10019C00030B8B4201D30B03C01A5241C30A8B428F
:1001AC0001D3CB02C01A5241830A8B4201D38B027A
:1001BC00C01A5241430A8B4201D34B02C01A52411E
:1001CC00030A8B4201D30B02C01A5241CDD2C30990
:1001DC008B4201D3CB01C01A524183098B4201D30C
:1001EC008B01C01A524143098B4201D34B01C01AF7
:1001FC00524103098B4201D30B01C01A5241C3086F
:10020C008B4201D3CB00C01A524183088B4201D3DD
:10021C008B00C01A524143088B4201D34B00C01AC9
:10022C005241411A00D20146524110467047FFE735
:10023C0001B5002000F0F0F802BDC0460029F7D04F
:10024C0076E7704703460B437FD4002243088B426A
:10025C0074D303098B425FD3030A8B4244D3030B41
:10026C008B4228D3030C8B420DD3FF22090212BA06
:10027C00030C8B4202D31212090265D0030B8B4282
:10028C0019D300E0090AC30B8B4201D3CB03C01A6C
:10029C005241830B8B4201D38B03C01A5241430B47
:1002AC008B4201D34B03C01A5241030B8B4201D337
:1002BC000B03C01A5241C30A8B4201D3CB02C01AA2
:1002CC005241830A8B4201D38B02C01A5241430A1A
:1002DC008B4201D34B02C01A5241030A8B4201D309
:1002EC000B02C01A5241CDD2C3098B4201D3CB01B0
:1002FC00C01A524183098B4201D38B01C01A52415F
:10030C0043098B4201D34B01C01A524103098B4262
:10031C0001D30B01C01A5241C3088B4201D3CB004D
:10032C00C01A524183088B4201D38B00C01A524130
:10033C0043088B4201D34B00C01A5241411A00D2E0
:10034C0001465241104670475DE0CA0F00D0494249
:10035C00031000D34042534000229C4603098B42B9
:10036C002DD3030A8B4212D3FC22890112BA030A41
:10037C008B420CD3890192118B4208D389019211C3
:10038C008B4204D389013AD0921100E08909C30948
:10039C008B4201D3CB01C01A524183098B4201D34A
:1003AC008B01C01A524143098B4201D34B01C01A35
:1003BC00524103098B4201D30B01C01A5241C308AD
:1003CC008B4201D3CB00C01A524183088B4201D31C
:1003DC008B00C01A5241D9D243088B4201D34B0037
:1003EC00C01A5241411A00D20146634652415B1079
:1003FC00104601D34042002B00D54942704763465A
:10040C005B1000D3404201B5002000F005F802BD9E
:10041C000029F8D016E770477047C0468446100094
:10042C0062468C461900634600E0C0461FB501F0D9
:10043C00F7F8002801D40021C8421FBD10B501F007
:10044C003BF84042013010BD10B501F0E9F800282E
:10045C0001DB002010BD012010BDC04610B501F01D
:10046C00DFF8002801DD002010BD012010BDC046C2
:10047C0010B501F065F8002801DC002010BD01204A
:10048C0010BDC04610B501F05BF8002801DA002061
:10049C0010BD012010BDC046002B11D1002A0FD178
:1004AC00002900D1002802D00021C943080007B45C
:1004BC00024802A14018029003BDC0465DFFFFFF39
:1004CC0003B4684601B5029800F006F8019B9E46FD
:1004DC0002B00CBC7047C046F0B557464E46454678
:1004EC00DE46E0B504000D009246994683B08B427F
:1004FC0030D82DD04946504602F006F929000600A6
:10050C00200002F001F9331A9846203B34D49B4664
:10051C0053465A46934042461F00534693401E0092
:10052C00AF423BD8AF4200D179E05B46A41BBD4142
:10053C00002B00DA76E000220023009201930123C5
:10054C005A4693400193012342469340009329E07D
:10055C008242CFD900220023009201930C9B002BE6
:10056C0001D01C605D600098019903B0F0BCBB46E3
:10057C00B246A946A046F0BD42469B4620239B1A94
:10058C005246DA40414613004A468A40170042461A
:10059C001F43534693401E00AF42C3D90022002391
:1005AC00009201934346002BD8D0FB0772081A43E4
:1005BC0046467B080EE0AB4201D1A2420CD8A41AED
:1005CC009D41012024196D410021013E24184D410B
:1005DC00002E06D0AB42EED9013E24196D41002EFF
:1005EC00F8D1009801995B4600196941002B24DB76
:1005FC002B005A464446D3402A00E2401C005B467E
:10060C001500002B2ADB26009E40330026004746AF
:10061C00BE403200801A9941009001919EE7A3429E
:10062C00BCD882E74246202300219B1A002200916D
:10063C0001920122DA40019285E7424620239B1A5F
:10064C002A0046469A402300F340444613432A00AE
:10065C00E2401C005B461500002BD4DA42462F000A
:10066C002023260097409B1ADE403B003343CDE706
:10067C0010B5041E0DD002F029F89E231B1A962BE0
:10068C000CDC082834D0083884406402640AD8B2E0
:10069C0001E000200024C005204310BD992B13DC81
:1006AC00421F9440144A224061071CD00F21214064
:1006BC00042918D00432D408520115D59F236402A2
:1006CC00181A640AC0B2E6E7020021001B329140FE
:1006DC000A00511E8A410521091ACC401443064ACE
:1006EC0022406107E2D1D4086402640AD8B2D2E78E
:1006FC006402640A8E30CEE7FFFFFFFBF0B54F4675
:10070C004646D646C0B582B0009001910E034C000F
:10071C00CD0F710A009E5F00760F0E430099009278
:10072C000193C900894619037B0D9846019B490A20
:10073C00DB0F9C46009B009A5B0F0B434146640DFC
:10074C00D200611A654500D1A6E0002972DD47464A
:10075C00002F00D1DDE0CC4FBC4200D19AE1012743
:10076C00382917DC80273F043B431F2900DDDDE1DE
:10077C002027781A1F008740BA461700CF408446BE
:10078C0038005746074360468240CB40501E82419A
:10079C00F61A17434B46DF1BB94580414042361AC7
:1007AC00330200D4FFE07602760A002E00D13CE141
:1007BC00300001F08BFF0300083B20213800CA1ADF
:1007CC00D0409E4002009F4032439C4200DDA6E197
:1007DC00181B0130091A3E008F40C6407B1E9F41FA
:1007EC0013008B4037431F43C2403B0016000024CC
:1007FC00134300D1DFE17B0700D132E30F233A0032
:10080C003B40042B04D03A1DBA42BF417F42F6193B
:10081C00330200D423E39C4B01349C4200D1B4E05E
:10082C009A4B64051E40640D7707D2087602174375
:10083C00360BACE0002900D17EE04146091B002CB0
:10084C0000D060E134004846044300D1C9E14C1E9D
:10085C00012900D12EE28C4DA94200D124E20127BE
:10086C00382C11DC21001F2900DD0BE2202437007D
:10087C004846641AA740C84007434846A040CE40AB
:10088C00441EA0419B1B0743D71BBA4292415242C4
:10089C00654644469E1A83E7002900DC9CE04746E7
:1008AC00002F67D11F00174300D1E4E0481E012937
:1008BC0000D19BE1744FB94200D1EBE0012701005C
:1008CC00382811DC1F2900DDC7E12027781A1F000A
:1008DC00844687401000C840074360468240CB40A6
:1008EC00501E8241F61817434F444F4580414042F9
:1008FC003618330257D5644B01349C4245D0012144
:10090C00624B7A081E4039400A43F70717437608B2
:10091C0071E71F00174300D1ADE04F1EBC46012903
:10092C0000D182E1584FB94200D190E161460127D4
:10093C00382900DD2EE718E7554F611C394200D0ED
:10094C00D0E0310048461F0001431743002C00D073
:10095C003DE1002900D1BCE1002F00D0BFE14B46A6
:10096C000021D80877070743F00806034C05360B1F
:10097C00640D0CE0444FBC4200D18BE001273829B8
:10098C00B2DC80273F043B439CE70026002724056C
:10099C003443ED072C433800210002B0E0BCBA46CA
:1009AC00B146A846F0BD7B0704D00F233B40042B77
:1009BC0000D028E7F808344B77070743F0089C422F
:1009CC0000D04AE23B00034359D08026360306434D
:1009DC0036032D4C360BDAE7002961D04146091B52
:1009EC00002C00D1B9E0284CA04500D1A5E101278D
:1009FC00382913DC8024240426431F2900DDC8E198
:100A0C00202437004846641AA740C840074348468C
:100A1C00A040CE40441EA0419B190743BF189742EB
:100A2C00924152424446D61863E7380001F04EFE1C
:100A3C00030018331F2B00DCBFE63A000838824055
:100A4C009C4200DD83E01B1B581C1F2800DCB4E11A
:100A5C0017001F3BDF40202805D040231B1A9A406B
:100A6C00531E9A4117430024002F0AD07B0700D055
:100A7C00C4E626009EE74B460C00D8089BE70027EF
:100A8C00014C002683E7C046FF070000FFFF7FFFF5
:100A9C00FE0700004B467707D8080743F00891E79C
:100AAC00CD4F611C39426BD1310048460143002CBB
:100ABC0000D04BE11F001743002900D181E1002F2A
:100ACC0000D14CE74A444A458041F618404236185A
:100ADC00330200D5B0E117009146374300D03EE712
:100AEC00002654E74946891A8846C145BF41F11A88
:100AFC007F42C91B0F0261D447460F4300D1BDE0B2
:100B0C000E00474651E6B54CA04500D100E1012747
:100B1C00382900DDB8E6802424042643A3E6B04E31
:100B2C00E41A16407B0700D03FE743E70F0018009C
:100B3C00203FF8408446202903D04027791A8B4067
:100B4C001A43531E9A41634617001F4322E6A448DA
:100B5C00E11A10404707C00807E734004846044331
:100B6C0000D1FAE04C1E012900D1D7E09B4FB942CD
:100B7C0000D1E2E00127382C00DD4FE721003CE7F3
:100B8C00964CA14200D1DDE04A444A458041F3181D
:100B9C0040421818C707520817434608520705D099
:100BAC000F220C003A40042A00D02CE67607FF08EE
:100BBC0037430009D9E600270026E8E64946571ACC
:100BCC00BA4292419E1B52426546B61AEDE5002987
:100BDC0000D0C6E0002F67D1802600257F4C36035D
:100BEC00D5E665460C001E00D008E4E64A444A45AA
:100BFC008041F318404218181100030200D496E00B
:100C0C00774B49081840C3070B434408490700D1E8
:100C1C0029E10F221A40042A00D1EAE01F1D9F424D
:100C2C00B641764236190224C4E649468F1AB945B4
:100C3C008041F61A4042361A330206D47307FF0875
:100C4C0001211F43F00890E665460124ABE54B46B5
:100C5C007707D8080743F008B4E60F001800203FC8
:100C6C00F8408446202903D04027791A8B401A4338
:100C7C00531E9A41634617001F4335E60025002496
:100C8C00002684E60C003500203CE540202905D0E8
:100C9C004024611A8E404946314389464846411EDC
:100CAC00884107002F43EFE5D2085F0765461743DD
:100CBC00D80887E6171ABA4292419E1B5242B61ABE
:100CCC003302C1D47307FF08654601211F43F008A6
:100CDC004BE6002F7BD065461E0091463FE6811AFD
:100CEC008846C145A441F11A6442091B802424049E
:100CFC00214277D0101A8242924107009E1B524229
:100D0C00B61A374300D0A0E06546002400263EE624
:100D1C005F07D20865461743D80853E681189142FD
:100D2C009241F01852428018030200D568E7470739
:100D3C00C9080F43C008012117E6D2085F07174303
:100D4C00D8083FE60C000026002720E6002956D1E3
:100D5C005F07D2081743D80834E60C001E00D008F1
:100D6C0029E6C10870070143F008002F62D08024E7
:100D7C002403204207D0DE08264204D16546300009
:100D8C00D1085B0719434F0FC900C9087F070F43F0
:100D9C0018E60C003000203CE0408446202905D0A9
:100DAC004024611A8E404946314389464846411ECB
:100DBC008841614607000F4330E620210027091ABD
:100DCC000EE51E00002F00D022E5002458E7002578
:100DDC0000240026DBE5C046FE070000FF070000EC
:100DEC00FFFF7FFF47460F4300D147E70E00C14688
:100DFC00B5E5DF086407022127430009B5E51900B2
:100E0C00C008770707431143F008002900D1D9E542
:100E1C0080210903084207D0DC080C4204D1D20817
:100E2C005B071A43170020007B0FFF00FF085B07CE
:100E3C001F43C7E50F00C5E5124BD20833405F07CF
:100E4C005B02012417431E0BA1E5264212D00D4B69
:100E5C006546020001241E40E6E4210085E51700EA
:100E6C00A8E53A00D4E4DB0864071C432700022100
:100E7C0000097AE5C0087707074365460021F008AA
:100E8C0073E5C046FFFF7FFFF0B5DE46454657468B
:100E9C004E46E0B587B0009201930B031B0B9B46AB
:100EAC00CA0F4B00040080465B0D029200D198E003
:100EBC007C4A934237D05946420FC9000A438021DD
:100ECC0009041143C2009046774A894692469A44D7
:100EDC00002300240393009E019F3B031B0B9B46A6
:100EEC007B0030005B0DFD0F002B59D06D4A9342F7
:100EFC0048D05946720FC9000A4380210904114396
:100F0C008B466949F2008C4651466344CB1A9A468B
:100F1C000021029E6E40F6B20F2C00D9CEE0634B3E
:100F2C00A4001B599F465A460243914600D090E0BC
:100F3C009A460223904608240393CCE7CB464246BC
:100F4C00029D0399022900D1DEE1032900D18DE035
:100F5C00012900D079E12E000022002300249046C4
:100F6C001B052343F60733434046190007B0F0BC7A
:100F7C00BB46B246A946A046F0BD002200249046CE
:100F8C00484BEDE75A46009B1A43494B9C46E244BA
:100F9C00002A59D102231C43002302219B46B8E7A7
:100FAC005A46009B1A4349D05B46002B00D19CE16A
:100FBC00584601F08BFB020003000B3A1D27009EE4
:100FCC00BA1A19005846D6400839884032000243F4
:100FDC009346009A8A40374953448A4600219A44E2
:100FEC0097E75B460343994621D05B46002B00D123
:100FFC0069E1584601F06AFB0B235B429C460200F8
:10100C00844466461D239B1B260011005846DE4077
:10101C000839884033000343994623008B40984697
:10102C00254B00249B1A9A460023039353E7002375
:10103C0098469A460133042403934CE701231C433E
:10104C00002301219B4664E70323320003211C4348
:10105C005FE79A460323D9460C2403933BE700230E
:10106C008024984600260F4B240379E780245B46A6
:10107C0024031C4324032E0090460A4B240B6FE7D9
:10108C0080244B462403234202D05B462342F0D0FB
:10109C0080244B4624031C432403029E014B240B47
:1010AC005EE7C046FF07000001FCFFFF1C8C000838
:1010BC0001F8FFFFF30300000DFCFFFFCB4500D24E
:1010CC00F8E000D1F3E001235B429C4644464846DD
:1010DC000025E2445B46170E1B021F43190C3B0410
:1010EC00120200971F0C914602910397FFF7A6F886
:1010FC0002007A430B04210C804619438A4209D919
:10110C00009F0123BC465B4261449C46E0448F42F5
:10111C0000D85CE1881A0299FFF790F8039A24042E
:10112C0042430904240C03000C43A24206D9009943
:10113C00013B8C466444A14200D842E1A01A4246CD
:10114C0012041A4393464B4659461B0C1F0004933A
:10115C000B0449460904090C0C001B0C5C43120CD3
:10116C007B43884651437A43270CBC465B18634447
:10117C00994203D9802149028C466244190C2404FB
:10118C001B04240C8A181C19904202D316D1A542B8
:10119C0014D25B46009F013B4D4405934D459B414A
:1011AC00BC465B426344C018874200D302E18242D2
:1011BC0000D929E100D124E1059B9B462C1BA542BB
:1011CC00AD41009B801A6D42401B834200D10FE160
:1011DC000299FFF733F8039A0B044243210C0500E4
:1011EC0019438A4200D9CBE0881A0299FFF726F8F6
:1011FC00039A240442430904240C03000C43A24226
:10120C0000D9CAE04146A41A2A041A43049F1304C5
:10121C001B0C594340467B439C46150C68430B0CF6
:10122C00844463447D43984203D980204002844621
:10123C006544180C09041B04090C40195B18844202
:10124C0027D323D0012335001A43944B5344002B4E
:10125C0060DD510700D086E02E00D1085A46D2013D
:10126C0006D55A468E4B1A4080239346DB005344D6
:10127C008C4A934200DD80E65A4652070A43904658
:10128C005A465B055402240B5B0D69E63500002BB6
:10129C00DBD0009D511EAC466444AC4200D29EE0B3
:1012AC00844200D2E1E000D1EEE00A00CAE74245F8
:1012BC0000D908E74B46DC07580843465B081C433B
:1012CC004346DD0706E701F001FA15239C468444EA
:1012DC000200634620321C2B00DC92E62300083807
:1012EC0083409946002398469AE601F0EFF90200F4
:1012FC000300153220331C2A00DC5FE60099083805
:10130C00814000228B4666E600222E000024904687
:10131C00654B25E62E000121C91A382900DD1BE694
:10132C001F297EDC6148140050445B468240834098
:10133C00CC40501E824123431A435B46CB4051079D
:10134C0009D00F211140042905D0111D9142924161
:10135C0052429B180A00190200D49BE00022012380
:10136C0000249046FCE50F211140042900D173E7BD
:10137C00111D9142924152422E00C90893446DE7CF
:10138C00009B013D9C4661448B4200D92CE78A426C
:10139C0000D829E7851E614426E70099013B8C465D
:1013AC006444A14200D92DE7A24200D82AE7831E4B
:1013BC00644427E7874200D0FEE6A94500D9FBE646
:1013CC00F5E6A24200D8B9E6831E6444B6E68A422A
:1013DC0000D89FE6BC46831E984661449AE60A00F4
:1013EC00844200D02EE74B4500D02BE735002CE78C
:1013FC002A4B2F4A5344924543DB0122002193444C
:10140C002CE7AC4200D8D7E602235B429C460099FD
:10141C004D444D459B41E3448C465B426344C018AC
:10142C00CCE61F204042C31A5846D840202904D08D
:10143C005946204B534499400A43531E9A41072363
:10144C001900024300241140134209D00833134001
:10145C00042B1DD0131D934289411A0049424907A0
:10146C00D2080A43904600237AE54946009F4D0076
:10147C004D458941BC4649426144A946023A64182B
:10148C00AEE70122524246E79945EED30A00AAE79D
:10149C000021E5E759075B021C0BE1E7FF030000A5
:1014AC00FFFFFFFEFE070000FF0700001E04000008
:1014BC0002FCFFFF3E040000F0B55746DE464E46E8
:1014CC004546E0B50D000400E80F83460903D80F2C
:1014DC00090B824619488C461F0369005E00490DB2
:1014EC003F0B760D814218D086420FD00120B142BD
:1014FC000DD1BC450BD1944209D1D3451CD0002948
:10150C0005D160462043431E984100E00120F0BC09
:10151C00BB46B246A946A046F0BD01208E42F6D18C
:10152C00614639430F0017432743F0D15B465246BF
:10153C00981A431E9841EAE70020E8E7FF070000ED
:10154C00F0B557464E464546DE46E0B50D000E0357
:10155C004900490D8A46DF0FE90FBC4683B02F4F77
:10156C00040080460191580019039146360B090B73
:10157C00400DBA451DD0B8420DD05746002F2AD188
:10158C003443002824D10A4336D0002C41D1634681
:10159C005800013815E0114338D15346002B01D1C6
:1015AC002643F4D0019B634507D1019B58000138B9
:1015BC0007E026432AD1504521D00120019B5F42F0
:1015CC00384303B0F0BCBB46B246A946A046F0BDBA
:1015DC00002CDCD0E6E70028EFD0019B6345ECD172
:1015EC008245EADCE1DB8E42E7D8DED1C845E4D89F
:1015FC000020C845E5D2D8E7002CE2D0DDE7114346
:10160C0004D1019B6345D8D10020DAE70220404287
:10161C00D7E7019B6345E6D0CFE7C046FF07000044
:10162C00F0B557464E464546DE46E0B50D000E0376
:10163C004900490D8A46DF0FE90FBC4683B02E4F97
:10164C00040080460191580019039146360B090B92
:10165C00400DBA451ED0B8420DD05746002F27D1A9
:10166C003443002833D10A4334D0002C40D1634694
:10167C005800013815E0114312D15346002B01D10B
:10168C002643F4D0019B63451DD00120019B5F4292
:10169C00384306E0264303D15045F6D111431CD004
:1016AC00022003B0F0BCBB46B246A946A046F0BD32
:1016BC000028EAD0019B6345E7D18245E5DC02DBDB
:1016CC008E42E2D80ED0019B58000138E9E7002C7D
:1016DC00CDD0D7E7002CE4D0D7E7019B00206345A1
:1016EC00DFD0D2E7C845D0D80020C845D9D2EAE728
:1016FC00019B6345E4D0C8E7FF070000F0B55746EF
:10170C004E46DE464546E0B51F000B031B0B16008C
:10171C009A46CA0F4B000400914685B05B0D00D170
:10172C00CFE1CD4A934255D05146420FC9000A43EE
:10173C00802109041143C2009046C84A8A46934648
:10174C009B440023002502933C037B00FA0F019677
:10175C00240B5B0D009200D188E1BF4A934200D16B
:10176C0092E0BE4A944663449B440A2D42DCE4005A
:10177C00730F23438024494624041C43F300019334
:10178C00009B00205940CBB20393022D00DC94E067
:10179C000123AB401D00A6232A00DB001A401D428A
:1017AC0000D029E290239B001D4200D14DE2002382
:1017BC00802499462403A84B10004A461B0523435A
:1017CC00D2071343190005B0F0BCBB46B246A9467C
:1017DC00A046F0BD52460243904600D0ACE19B4679
:1017EC000223924608250293AEE7009BA246994637
:1017FC00019B9846029B022B00D1CAE1032B00D11E
:10180C0092E1012B10D1002300240022D4E7012205
:10181C007B083A4013435246D2071343984653462B
:10182C005B089A46039B99465B46581C8023DB0059
:10183C005B44002B00DCB1E1424652070BD00F2277
:10184C0041460A40042A06D04246111D41459241A8
:10185C008846524292445246D20106D55246804B9B
:10186C001A4080239246DB00C3187E4A934200DD67
:10187C008FE14246D108524652070A4351465B0556
:10188C004C02240B5B0D97E7734B26439C46E344B9
:10189C00002E00D16FE1032349461D43009B5940A4
:1018AC00CBB203930A2D00DD33E10123AB401D00C5
:1018BC000323029388222A4297D1424643461204BC
:1018CC00120C160001981D0C030C0004000C46436E
:1018DC00B4461E006E430096160007005E43614638
:1018EC00B0466F430E0CB8444644B74205D980212C
:1018FC0049028846009F4744009761460904090C39
:10190C00370C36048C463100614401911100260CD1
:10191C002404240C61438C462100694389466146AA
:10192C00090C884672434A4442447543914503D995
:10193C008021490288464544110C884661460904B9
:10194C00090C8C4612046244B91802915146090CD8
:10195C008C4651460F043F0C3900414345448846A0
:10196C00614641438A4641466046090C89465843C4
:10197C007B4353444B449A4503D980214902894601
:10198C004844190C894641460904090C884639001B
:10199C0061431B044344884661464C4371438C4667
:1019AC00414677430E0C3F19F6194844B44203D90B
:1019BC00802149028946CC440299009F8946310412
:1019CC004F4489464146974292410C04240C4C44A6
:1019DC00FF1852426419A1189F429B4188468246C7
:1019EC005B42994690459241AC42A441C244D144D9
:1019FC0052426442144399459B41824592415B4259
:101A0C00524213434A46360CA419E31863445B0252
:101A1C00D20D1A43019992467A020A43501E824112
:101A2C00FF0D17434A4652021743B846DB0100D557
:101A3C00EDE60D4B039A5B449146002B00DCACE0C9
:101A4C003A00520700D110E70F2258463A40042AB8
:101A5C0000D0F9E609E7C046FF07000001FCFFFFD4
:101A6C00FFFFFFFEFE070000FF03000022003243D1
:101A7C006FD0002C00D1C2E0200000F027FE020045
:101A8C0003000B3A1D20821A30001900D04008398F
:101A9C008C400200224334008C405946CB1A8649B4
:101AAC008B469B440A2D00DDA4E64946009B01941D
:101ABC005940CBB2140000200393022D00DD67E6E1
:101ACC00FBE65346034398463CD05346002B00D1CB
:101ADC00A3E0504600F0FAFD0B235B429C4602004B
:101AEC00844411005046083988401D2380466046C6
:101AFC001B1A2000D8400300404603439A4623009B
:101B0C008B4098466C4B00259B1A9B4600230293F6
:101B1C001AE60F2D00D0C9E0802352461B031A424F
:101B2C0002D01C4200D192E08024534624031C4373
:101B3C0024034246240B3EE69B46032380460C2599
:101B4C00029301E600239A469B4601330425029337
:101B5C00FAE501210D430A2D00DD4BE649460098BC
:101B6C004140C9B20391022D00DC96E00023002411
:101B7C00012001930CE649460223009A2B43514065
:101B8C00CAB203920A2B00DD34E6002D57D1039B19
:101B9C00994600240022494B0EE658460121C91AE9
:101BAC00382900DD2FE61F2956DD1F2254465242EC
:101BBC00D31ADC40202907D0414B42469C46534661
:101BCC00604483401A43904642460721531E9A4173
:101BDC000B00224313400024114209D00F23134061
:101BEC00042B5DD0111D91429B410A005B425B07A7
:101BFC00D2081A430023DFE5039B9946FAE50198C6
:101C0C0000F064FD02000300153220331C2A00DCB6
:101C1C0038E7019A083882403FE700F057FD15235A
:101C2C009C4684440200634620321C2B00DC58E79F
:101C3C00002398462300083883409A4662E71D002B
:101C4C000023002402200193A2E5029032E61C43FB
:101C5C00009B019A9946AEE51A4B5246C318404672
:101C6C009A40C8400243404698400300581E8341A6
:101C7C0054461A43CC40530709D00F231340042B6E
:101C8C0005D0131D934292415242A4181A0023020C
:101C9C0008D50123002400228EE5894600248BE51B
:101CAC000023A5E763076402240BA1E7009BA2466F
:101CBC009946019B984637E70DFCFFFFFF07000094
:101CCC003E0400001E040000F0B557464E46454643
:101CDC00DE46E0B583B0009001910C034D00CE0FB1
:101CEC00610A009C5F00640F0C4300990092019301
:101CFC00C80019037B0D9946019BCC4FDB0F9C460A
:101D0C004B0A00998046490F1943009B8B46DA0019
:101D1C0092466D0DB94500D1BFE001236146594093
:101D2C004B468C46EB1A8E4275D0002B00DCA3E29E
:101D3C004946002900D1CEE0BD4200D100E2012786
:101D4C00382B19DC802759463F0439438B461F2B0F
:101D5C0000DDFAE12027F91A8C4659466746B9404E
:101D6C000F001100D9400F4361468A40511E8A4131
:101D7C005946D9401743641AC71BB84280414042A8
:101D8C00241A230200D440E16402640A002C00D11E
:101D9C0054E1200000F09AFC0300083B202138009D
:101DAC00CA1AD0409C4002009F4022439D4200DD55
:101DBC00A6E1581B0130091A3C008F40C4407B1E21
:101DCC009F4113008B4027431F43C2403B0014002C
:101DDC000025134300D1F7E17B0700D177E30F23F4
:101DEC0038003B40042B04D0381DB842BF417F4221
:101DFC00E419230200D468E38C4B01359D4200D1D9
:101E0C00F4E08B4B6D051C406D0D6707C008640238
:101E1C000743240BECE0002B00DC29E349460029A6
:101E2C0000D0D6E05946114300D12EE1591E012BAA
:101E3C0000D1E6E1BB4200D182E101270B00382939
:101E4C0014DC1F2B00DD3CE22027F91A8C46594686
:101E5C006746B9400F001100D9400F4361468A40D4
:101E6C00511E8A415946D940174364183F1887427E
:101E7C00804140422418230200D4C6E06B4B01354C
:101E8C009D4200D1B2E00121694B7A081C403940D7
:101E9C000A43E707174364089EE7664B11438A46DB
:101EAC00EB18002928D066452CD0002B5BD0002DD8
:101EBC0000D12CE15B4666465F07D2081743DD086C
:101ECC003B002B4300D1E2E0802424032C43240369
:101EDC00564D240B8CE05946114300D1D5E0591EC8
:101EEC00012B00D1B9E1BB4200D1B1E101270B00BC
:101EFC00382900DD40E72AE76146012779408C4606
:101F0C006645D2D1002B00D1C5E0002D00D055E1A3
:101F1C004B462500054300D112E2591E8C46012B7D
:101F2C0000D149E2414DAB4200D18FE20127382963
:101F3C0011DC63461F2B00DD5BE26146202327008A
:101F4C005B1A050098409F40CD40431E9841CC4001
:101F5C002F430743A344BF189742924152425A441D
:101F6C0014004D4687E7344F6B1C3B4200D0B6E063
:101F7C005946230011430F000343002D00D026E1E6
:101F8C00002B00D1C0E1002900D1A1E0831A9846B2
:101F9C005B464045AD41E31A6D425B1B80252D0429
:101FAC002B4200D14BE15B46101A824292411C1B22
:101FBC000700012663465242A41A27431E40002FF5
:101FCC0000D142E12C4200D16DE2194B01251C409D
:101FDC001BE7BD4200D13BE10127382B00DD45E773
:101FEC00802759463F0439438B462AE700240027B3
:101FFC002D052543F60735433800290003B0F0BC06
:10200C00BB46B246A946A046F0BD7B0704D00F23C1
:10201C003B40042B00D0E7E62B00F808034A670787
:10202C000743E508934200D14AE7A5E0FF0700000B
:10203C00FFFF7FFF01F8FFFFFE070000380000F0F4
:10204C0045FB030018331F2B00DCA7E63A000838C9
:10205C0082409D4200DD8AE05B1B581C1F2800DC7F
:10206C00D8E117001F3BDF40202805D040231B1A66
:10207C009A40531E9A4117430025002F00D1E5E0EA
:10208C007B0700D0ABE62C00C6E7C008C6E70027EC
:10209C000024D14DACE7D14F6B1C3B4271D12300D6
:1020AC000343002D00D04EE15746002B00D1B5E183
:1020BC00002F0DD08318834280415C444042241889
:1020CC00220200D5C8E11F009846274300D1BCE08E
:1020DC0043466707DB081F43E50800234CE0831ADF
:1020EC0098465B464045BF41E31A7F42DB1B1F020B
:1020FC007CD447461F4300D1A6E01C00474645E66A
:10210C00B74CED1A14407B0700D080E784E74B46B0
:10211C002500054366D05F1E012B00D1FCE0AE4DBF
:10212C00AB4200D15EE16646382F00DCB4E0012002
:10213C00171ABA4292415B4652424D469C1A20E60F
:10214C006707C0080743E508BAE61F005946203F59
:10215C00F9400F00202B05D04021CB1A594699404D
:10216C000A43924653465A1E93411F4304E6EB1A08
:10217C009B4D15406F07ED082C035D05240B6D0D71
:10218C0036E7954DAB4200D1D6E082182100824251
:10219C008041594440420818C70752081743440865
:1021AC00520700D485E10F221D003A40042A00D0CA
:1021BC001AE6FF08640727430509DDE75B46D208EA
:1021CC005F071743DD087BE60027002410E7002B90
:1021DC0000D0D6E0002900D02FE1802400267E4DCF
:1021EC00240305E766465C46D00817E75B46171ADA
:1021FC00BA4292411C1B012663465242A41A1E404D
:10220C00C4E58318834280415C44404225182A026D
:10221C0000D4DAE0724A5B081540EA071A436908F1
:10222C005B0700D44AE10F231340042B00D1FCE0E0
:10223C00171D9742A441644202256418ECE64746F8
:10224C001C001F4300D043E7002600250024CFE6E6
:10225C00C00867070743E50832E6871A5B46B842B1
:10226C008041E41A4042241A230228D46307FF0851
:10227C001F43E50801237FE7002B00D173E64B4693
:10228C005F1B3B00002D00D142E7382F00DDECE056
:10229C0080230E001B041C431F2F25DC202523004C
:1022AC00ED1B0100A840AB40F940451EA8410B4373
:1022BC00FC4018435B461B1B9B4639E766460125D1
:1022CC0062E51F005946203FF9408C46202B05D073
:1022DC0040275946FB1A99400A43924657467B1EA3
:1022EC009F4163461F43C1E53B002500203BDD4079
:1022FC00202F04D04023DB1B9C40204380464046CB
:10230C00431E9841284313E700299DD001266346BC
:10231C005C4690461E40DBE6171A5B46BA42924179
:10232C001C1B5242A41A2302C8D46307FF081F4384
:10233C0066460123E5081FE71D000024002757E629
:10234C005C46D0086AE6002B00D137E75346C0083C
:10235C0067070743E508002B00D1B1E580231B0379
:10236C001D4208D05946C808184204D1D208490762
:10237C000A43170005007B0FFF00FF085B071F4394
:10238C009EE5C00863071843E508002953D0802355
:10239C001B031D420AD05946CC081C4206D101260B
:1023AC0063462500D008490708431E40470FC0006C
:1023BC00C0087F07074383E58318934292415C442E
:1023CC005242A5182A0200D524E76F07DB081F43E9
:1023DC00ED080123D0E6C046FF070000FE07000011
:1023EC00FFFF7FFF5B46D2085F0766461743DD0899
:1023FC0066E52500203BDD406346202B05D04023BD
:10240C0061465B1A9C402043804647467B1E9F4199
:10241C002F43A0E520210027091AD2E4002F00D178
:10242C0013E75C4617000025F6E5D7084907022399
:10243C000F432D09A0E6070042E55B4601265F0726
:10244C00DD086346D20817431E4039E55B46D208C7
:10245C005F071743DD0833E51E4ADB0822405707A8
:10246C00520201251F43140BC2E50E0001205FE64A
:10247C00002B0DD04B465B1B9C46002D00D148E534
:10248C000127382B00DD66E580231B041C4350E537
:10249C006B1C114D2B4200D073E65946230011439F
:1024AC008A46034300E66707C00800230743E50894
:1024BC0062E66407FF08274305095DE6D208490771
:1024CC0011430F0002232D0956E60700A4E538003E
:1024DC008FE4C046FFFF7FFFFE070000F0B5C64645
:1024EC001E03360BB0460D4E0C034D005F0000B5BD
:1024FC00240B6D0D7F0DB5420BD0084900208F4287
:10250C0004D1464616433000431E984180BCB84661
:10251C00F0BD04430120002CF8D1EEE7FF070000CA
:10252C000B00020070B5164D0C0382B04900002060
:10253C0000920193240B490DDE0FA94204DD1148D2
:10254C00814203DD104BF01802B070BD80204003B7
:10255C0020430E4C641A1F2C08DD0D4B5B1AD8401F
:10256C0003005842002EEFD11800EDE7094B009AFA
:10257C009C46030061448B40E2401343F1E7C046A4
:10258C00FE0300001D040000FFFFFF7F330400006A
:10259C0013040000EDFBFFFF70B5002816D0C31725
:1025AC00C5185D40C40F280000F090F8104B1B1AA2
:1025BC005B055B0D0A2814DC02002E0015329640D8
:1025CC000B22121AD5402D032D0B03E000240023FF
:1025DC00002500261B052B43E4072343300019007C
:1025EC0070BD0B3885402D0300262D0BF2E7C0463D
:1025FC001E04000010B5041E10D000F067F80E4B3E
:10260C001B1A5B055B0D0A280FDC0B222100121A2A
:10261C00D14015300A038440120B01E00023002244
:10262C001B0513432000190010BD22000B388240FB
:10263C0012030024120BF3E71E04000070B54202D3
:10264C004300C40FFE201B0E591C550A08420CD027
:10265C00E02189008C466D07120B63441B05134364
:10266C00E40723432800190070BD002B14D1002D62
:10267C001BD0280000F02AF80A281CDC0B232A00A7
:10268C001B1ADA40030015339D400E4B12031B1A24
:10269C005B05120B5B0DE1E7002D09D0130B8022BB
:1026AC0012031A436D07084BD8E700230022D5E725
:1026BC000022054BD2E703002A000B3B9A40002571
:1026CC00E3E7C04689030000FF0700001C2101233B
:1026DC001B04984201D3000C10391B0A984201D3F9
:1026EC00000A08391B09984201D30009043902A2D7
:1026FC00105C40187047C04604030202010101013E
:10270C00000000000000000010B5002903D1FFF705
:10271C00DDFF203002E00800FFF7D8FF10BDC046F7
:10272C0080B592B002AF00F07DFB00F043F800F0F2
:10273C0059F900F009F900F09BF8A023DB05012101
:10274C00180001F0F0FBC82000F0F2FB154B18004C
:10275C0000F0F4FE144A134B1100180000F048FF6F
:10276C00104B180000F038FF03001800FDF780FF35
:10277C00031CFB63F86BFFF761FF02000B000B49B6
:10278C00381D009201930A00322104F045F8030031
:10279C00BB63BB6B9AB2391D0548642302F0C6FBC0
:1027AC00C046CAE7F0010020001000B0008C000801
:1027BC005402002090B595B000AF14243B191800BA
:1027CC003C231A00002104F0A9F83B1D180010232B
:1027DC001A00002104F0A2F880239B00180001F0DD
:1027EC00BDFB3B1902221A603B1980225200DA60B1
:1027FC0021007B1800221A617B1840225A617B1839
:10280C0002221A627B1802225A627B1800229A62F8
:10281C007B180822DA627B18802292021A637B18DA
:10282C00802292045A637B18802292059A637B184B
:10283C00180001F0DFFB031E01D000F017F93B1D5F
:10284C0007221A603B1D02225A603B1D00229A602F
:10285C003B1D0022DA603B1D0221180001F02AFF0B
:10286C00031E01D000F002F9C046BD4615B090BD64
:10287C0080B584B000AF3B1D18000C231A0000215A
:10288C0004F04CF82D4B2E4A1A602C4B8022D205AA
:10289C005A602A4B00229A60284B0022DA60274BA0
:1028AC0000221A61254B04225A61244B00221A760D
:1028BC00224B00225A76214B00229A761F4B012282
:1028CC00DA611E4B2022002199541C4B00225A62C3
:1028DC001A4B00229A62194B2C2200219954174B47
:1028EC0000221A63154B00225A63144B00229A6380
:1028FC00124B3C2200219954104B0022DA640F4BEE
:10290C00180000F073FC031E01D000F0AFF83B1D63
:10291C000C4A1A603B1D00225A603B1D00229A6033
:10292C003A1D064B1100180000F062FE031E01D088
:10293C0000F09CF8C046BD4604B080BDF0010020FC
:10294C00002401404000001880B500AF234B244AFE
:10295C001A60224BE12252025A60204B00229A60EC
:10296C001E4B0022DA601D4B00221A611B4B0C22FD
:10297C005A611A4B00229A61184B0022DA61174BEC
:10298C0000221A62154B00225A62144B00229A62E2
:10299C00124B180002F074FA031E01D000F066F816
:1029AC000E4B0021180003F033F9031E01D000F088
:1029BC005DF80A4B0021180003F06AF9031E01D0E0
:1029CC0000F054F8054B180003F0E8F8031E01D092
:1029DC0000F04CF8C046BD4680BDC04654020020F5
:1029EC000038014090B589B000AF0C243B19180099
:1029FC0014231A00002103F091FF1B4B5A6B1A4B46
:102A0C0001210A435A63184B5B6B01221340BB60D4
:102A1C00BB68154B5A6B144B04210A435A63124B77
:102A2C005B6B042213407B607B68A023DB050022D8
:102A3C008121180001F05AFA21007B1881221A60BA
:102A4C007B1801225A607B1800229A607B180022A6
:102A5C00DA607A18A023DB051100180001F0DAF80F
:102A6C00C046BD4609B090BD0010024080B500AF15
:102A7C0072B6C046C046FDE780B582B000AF114BC0
:102A8C001A6C104B01210A431A640E4B1B6C012269
:102A9C0013407B607B680B4BDA6B0A4B802149053A
:102AAC000A43DA63074BDA6B80235B0513403B6008
:102ABC003B68C023DB00180000F05EFAC046BD4640
:102ACC0002B080BD0010024090B58BB000AF7860B2
:102ADC0014243B19180014231A00002103F01EFFC4
:102AEC007B681B68184A934229D1184B1A6C174BF8
:102AFC00802149030A431A64144B1A6C80235B032C
:102B0C0013403B613B69114B5A6B104B01210A433B
:102B1C005A630E4B5B6B01221340FB60FB683B1945
:102B2C0040221A603B1903225A603B1900229A601A
:102B3C003A19A023DB051100180001F06BF8C04610
:102B4C00BD460BB090BDC0460024014000100240B1
:102B5C0090B59DB000AF78605C23FB18180014236F
:102B6C001A00002103F0DAFE10243B1918004C2344
:102B7C001A00002103F0D2FE7B681B68224A9342A4
:102B8C003DD13B1901221A603B1900225A603B19B6
:102B9C00180001F039FF031E01D0FFF767FF1B4B34
:102BAC001A6C1A4B8021C9010A431A64174B1A6C10
:102BBC008023DB011340FB60FB68144B5A6B134BF7
:102BCC0004210A435A63114B5B6B04221340BB6014
:102BDC00BB685C217B1830221A607B1802225A6079
:102BEC007B1800229A607B180022DA607B18012285
:102BFC001A617B18064A1900100001F00BF8C04648
:102C0C00BD461DB090BDC0460038014000100240CA
:102C1C000008005080B500AFC046FDE780B500AF9E
:102C2C00C046FDE780B500AFC046BD4680BD80B54F
:102C3C0000AFC046BD4680BD80B500AF00F05CF96A
:102C4C00C046BD4680BD80B500AF01231800BD460F
:102C5C0080BD80B582B000AF7860396003F0B8FEFB
:102C6C00030016221A6001235B421800BD4602B015
:102C7C0080BD80B582B000AF786001235A427B687A
:102C8C0011001800FFF7E5FFC046FDE780B586B0E0
:102C9C0000AFF860B9607A6000237B610AE000E065
:102CAC0000BF0100BB685A1CBA60CAB21A707B69BB
:102CBC0001337B617A697B689A42F0DB7B68180090
:102CCC00BD4606B080BD80B586B000AFF860B96077
:102CDC007A6000237B6109E0BB685A1CBA601B78E0
:102CEC00180000E000BF7B6901337B617A697B6867
:102CFC009A42F1DB7B681800BD4606B080BD80B5FA
:102D0C0082B000AF786001235B421800BD4602B070
:102D1C0080BD80B582B000AF786039603B6880229E
:102D2C0092015A6000231800BD4602B080BD80B5E8
:102D3C0082B000AF786001231800BD4602B080BDA0
:102D4C0080B584B000AFF860B9607A6000231800D9
:102D5C00BD4604B080BD000080B586B000AF786081
:102D6C00144A154BD31A7B617B693B61134B1B686F
:102D7C00002B02D1114B124A1A60104B1A687B6857
:102D8C00D3183A699A4207D203F022FE03000C22B0
:102D9C001A6001235B4209E0084B1B68FB60074B80
:102DAC001A687B68D218054B1A60FB681800BD4680
:102DBC0006B080BD0040022000040000E8020020A4
:102DCC004004002080B500AFC046BD4680BD000069
:102DDC000D488546FFF7F6FF0C480D490D4A0023B8
:102DEC0002E0D458C4500433C4188C42F9D30A4AB4
:102DFC000A4C002301E013600432A242FBD303F01F
:102E0C00EDFDFFF78DFCFEE70040022000000020E6
:102E1C00D40100206C900008D40100203C04002058
:102E2C00FEE7000080B582B000AFFB1D00221A70D7
:102E3C000B4B1A680A4B802149000A431A60032085
:102E4C0000F010F8031E03D0FB1D01221A7001E0E4
:102E5C00FFF712FEFB1D1B781800BD4602B080BDAB
:102E6C000020024090B585B000AF78600F23FB18AE
:102E7C0000221A701D4B1B78002B2BD01C4B1C688E
:102E8C001A4B1B781900FA239800FDF751F903002F
:102E9C0019002000FDF74CF90300180000F0ADFEFE
:102EAC00031E12D17B68032B0AD8796801235B427D
:102EBC000022180000F08CFE0E4B7A681A600DE0B0
:102ECC000F23FB1801221A7008E00F23FB180122B4
:102EDC001A7003E00F23FB1801221A700F23FB1842
:102EEC001B781800BD4605B090BDC04608000020F8
:102EFC00000000200400002080B500AF054B1B78BB
:102F0C001A00054B1B68D218034B1A60C046BD460D
:102F1C0080BDC04608000020EC02002080B500AF48
:102F2C00024B1B681800BD4680BDC046EC02002059
:102F3C0080B584B000AF7860FFF7F0FF0300BB6092
:102F4C007B68FB60FB68013305D00A4B1B781A00C9
:102F5C00FB689B18FB60C046FFF7E0FF0200BB68F4
:102F6C00D31AFA689A42F7D8C046C046BD4604B098
:102F7C0080BDC0460800002080B582B000AF7860EC
:102F8C00064B1B68064A13401900044B7A680A4327
:102F9C001A60C046BD4602B080BDC046000001406C
:102FAC00FFF9FFFF80B582B000AF786039607B68B5
:102FBC001B68054A1A403B681A437B681A60C04676
:102FCC00BD4602B080BDC046FFFF3FFE80B582B05B
:102FDC0000AF78607B681A68E0235B04134018002C
:102FEC00BD4602B080BD80B584B000AFF860B9605A
:102FFC007A60FB685B69BA6804210A40072191403A
:10300C000A00D2431A40BB6804210B4079689940EE
:10301C000B001A43FB685A61C046BD4604B080BD24
:10302C0080B582B000AF786039607B685B693A68C4
:10303C0004210A40072191400A001A403B680421F0
:10304C000B40DA4013001800BD4602B080BD80B5BD
:10305C0084B000AFF860B9607A60FB689B6ABA68AC
:10306C001F210A400F2191400A00D2431A407B686D
:10307C009B0E0F211940BB681F20034099400B0089
:10308C001A43FB689A62C046BD4604B080BD80B549
:10309C0082B000AF786039607B689A6A3B685B03EA
:1030AC005B0B1A437B689A62C046BD4602B080BD7A
:1030BC0080B582B000AF786039607B689B6A3A68F3
:1030CC005203520BD2431A407B689A62C046BD46EB
:1030DC0002B080BD80B584B000AFF860B9607A6092
:1030EC00FB685B69BA681202D2431A40BB681B02C8
:1030FC0079680B4004490B401A43FB685A61C0467F
:10310C00BD4604B080BDC04600FFFF0780B582B04D
:10311C0000AF78607B689B68054A1340802252059B
:10312C001A437B689A60C046BD4602B080BDC0465B
:10313C00E8FFFF6F80B582B000AF78607B689A685B
:10314C0080235B051A4080235B059A4201D1012341
:10315C0000E000231800BD4602B080BD80B582B0EF
:10316C0000AF78607B689B68044A134001221A43C5
:10317C007B689A60C046BD4602B080BDE8FFFF7F09
:10318C0080B582B000AF78607B689B6801221340E9
:10319C00012B01D1012300E000231800BD4602B031
:1031AC0080BD000080B582B000AF78607B689B6802
:1031BC00044A134004221A437B689A60C046BD46F9
:1031CC0002B080BDE8FFFF7F80B582B000AF7860B1
:1031DC007B689B6804221340042B01D1012300E07F
:1031EC0000231800BD4602B080BD000080B588B039
:1031FC0000AF78601F23FB1800221A700023BB61FC
:10320C0000237B610023FB607B68002B01D1012331
:10321C007FE17B689B6D002B0AD17B681800FFF760
:10322C0053FC7B680022DA657B6854220021995498
:10323C007B681B681800FFF77DFF031E15D17B68A8
:10324C001B681800FFF762FFB44B1B68B4491800E9
:10325C00FCF76EFF030001335B00FB6002E0FB68D0
:10326C00013BFB60FB68002BF9D17B681B681800E5
:10327C00FFF760FF031E0FD17B689B6D10221A4372
:10328C007B689A657B68DB6D01221A437B68DA6583
:10329C001F23FB1801221A707B681B681800FFF7AC
:1032AC0093FF03003B617B689B6D1022134000D0A1
:1032BC0022E13B69002B00D01EE17B689B6D994A93
:1032CC00134002221A437B689A657B681B681800BE
:1032DC00FFF756FF031E00D0ADE07B689A687B6851
:1032EC001B7E9B031A437B685B7EDB031A437B6864
:1032FC009B7E5B031A437B681B6B002B02D08023E5
:10330C005B0100E000231A437B68DB681A437B688F
:10331C001B69002B04DA7B681B695B005B0801E00E
:10332C0080239B031A437B682C215B5C5B0013435B
:10333C00BA691343BB617B6820229B5C012B15D1BE
:10334C007B689B7E002B05D1BB6980225202134304
:10335C00BB610BE07B689B6D20221A437B689A65EE
:10336C007B68DB6D01221A437B68DA657B685B6ADC
:10337C00002B0AD07B685A6AE0235B001A407B68FA
:10338C009B6A1343BA691343BB617B681B68DB6898
:10339C00654A134019007B681B68BA690A43DA60F6
:1033AC007B685B689B0F9A077B68DB6C13437A69BD
:1033BC0013437B617B683C229B5C012B11D17B68A6
:1033CC005B689B0F9A077B681B6C1A437B685B6C72
:1033DC001A437B689B6C1A437B691343012213438A
:1033EC007B617B681B681B69504A134019007B6822
:1033FC001B687A690A431A617B685A68C0231B06EA
:10340C009A4218D07B685A688023DB059A4212D006
:10341C007B685A6880231B069A420CD0444B1B686D
:10342C00444A134019007B685A68F0239B031A40E6
:10343C003F4B0A431A607B6818687B685B6B1A0009
:10344C000021FFF7D0FD7B6818687B689B6B3A49BD
:10345C001A00FFF7C8FD7B681B69002B09D17B683C
:10346C001B689A6A7B681B68102149420A439A625E
:10347C0018E07B681A6980239B039A4212D17B68FF
:10348C001B689B6A7B68DB69013B9B001C22134019
:10349C00102252429A4011007B681A6E7B681B689E
:1034AC000A439A627B681B6800211800FFF7B8FD7D
:1034BC0002007B685B6B9A420BD17B680022DA6559
:1034CC007B689B6D0322934301221A437B689A65A8
:1034DC001CE07B689B6D1222934310221A437B687D
:1034EC009A657B68DB6D01221A437B68DA651F23C2
:1034FC00FB1801221A7009E07B689B6D10221A439D
:10350C007B689A651F23FB1801221A701F23FB1876
:10351C001B781800BD4608B080BDC04600000020D6
:10352C00400D0300FDFEFFFF0102DEFF02FCFF1F4A
:10353C0008270140FFFFC3FF04FFFF07B0B584B0AD
:10354C0000AF78607B681B681800FFF73DFE031E18
:10355C0035D17B6854229B5C012B01D1022335E0D1
:10356C007B685422012199540F257C197B68180023
:10357C0000F016FA030023707B191B78002B19D16D
:10358C007B689B6D134A1340802252001A437B6860
:10359C009A657B680022DA657B681B681C221A60BE
:1035AC007B685422002199547B681B681800FFF734
:1035BC00F9FD08E07B6854220021995403E00F23A5
:1035CC00FB1802221A700F23FB181B781800BD463B
:1035DC0004B0B0BDFEF0FFFF80B582B000AF7860E4
:1035EC007B681B681B6C1800BD4602B080BD0000D8
:1035FC0080B586B000AF786039601723FB180022C5
:10360C001A700023FB607B6854229B5C012B01D158
:10361C000223C0E17B685422012199547B681B680A
:10362C001800FFF7D1FD031E00D0A3E13B685B68D7
:10363C00022B00D143E17B681A6980231B069A4256
:10364C0004D07B681B69C14A934208D17B681A6815
:10365C003B681B6819001000FFF719FDC9E07B6877
:10366C001A6E3B685B681F210B400F2199400B00C1
:10367C00DB43134019003B681B685B035B0B05D1F4
:10368C003B681B689B0E1F22134098E03B681B682D
:10369C000122134000D091E03B681B6802221340CA
:1036AC0000D089E03B681B680422134000D081E005
:1036BC003B681B680822134000D079E03B681B680C
:1036CC001022134000D071E03B681B68202213408D
:1036DC0000D069E03B681B684022134000D061E0D9
:1036EC003B681B688022134000D059E03B681A6885
:1036FC0080235B00134051D13B681A6880239B00E8
:10370C00134049D13B681A688023DB00134041D138
:10371C003B681A6880231B01134039D13B681A6837
:10372C0080235B01134031D13B681A6880239B01D5
:10373C00134029D13B681A688023DB01134021D147
:10374C003B681A6880231B02134019D13B681A6826
:10375C0080235B02134011D13B681A6880239B02C3
:10376C00134009D13B681A688023DB02134001D057
:10377C00122324E0002322E0112320E010231EE07A
:10378C000F231CE00E231AE00D2318E00C2316E087
:10379C000B2314E00A2312E0092310E008230EE0A7
:1037AC0007230CE006230AE0052308E0042306E0C7
:1037BC00032304E0022302E0012300E000233A6823
:1037CC0052681F20024093400A001A437B681A6615
:1037DC003B685B689B085A1C7B68DB699A4208D87B
:1037EC007B6818683B6859683B681B681A00FFF7D0
:1037FC002EFC7B6818683B6819683B689B681A004C
:10380C00FFF768FC3B681B68002B00DBBCE0504BEF
:10381C001800FFF7DBFB03003B613B681B684D4A5C
:10382C00934222D13A6980231B0413401DD13B697A
:10383C00802212041343464A19001000FFF7B2FB12
:10384C00454B1B6845491800FCF772FC03005A1CD9
:10385C0013005B009B189B00FB6002E0FB68013BC4
:10386C00FB60FB68002BF9D18EE03B681B683C4A7F
:10387C0093420ED13A6980235B04134009D13B6912
:10388C00802252041343324A19001000FFF78AFBBE
:10389C007AE03B681B68334A934200D074E03A6983
:1038AC008023DB03134000D06EE03B698022D203FF
:1038BC001343274A19001000FFF774FB64E07B6880
:1038CC001A6980231B069A4204D07B681B691F4A25
:1038DC00934207D17B681A683B681B68190010007B
:1038EC00FFF7E6FB3B681B68002B4DDA184B180002
:1038FC00FFF76CFB03003B613B681B68154A934266
:10390C0008D13B69184A1340114A19001000FFF7FF
:10391C0049FB39E03B681B68114A934208D13B696B
:10392C00124A13400A4A19001000FFF73BFB2BE028
:10393C003B681B680B4A934226D13B690C4A1340E7
:10394C00034A19001000FFF72DFB1DE00400008056
:10395C0008270140001000B000000020400D0300BB
:10396C00004000B8002000B4FFFF7FFFFFFFFFFE08
:10397C00FFFFBFFF7B689B6D20221A437B689A6513
:10398C001723FB1801221A707B68542200219954CA
:10399C001723FB181B781800BD4606B080BDC04627
:1039AC0080B584B000AF78600023BB607B681B6877
:1039BC001800FFF7E5FB031E00D069E07B681B686D
:1039CC009B68364A13400DD07B689B6D10221A43BE
:1039DC007B689A657B68DB6D01221A437B68DA652C
:1039EC00012356E07B681B681800FFF7B7FB2C4BD4
:1039FC001800FFF7EBFA020080231B0413400FD0D2
:103A0C00284B1B6828491800FCF792FB0300013374
:103A1C00BB6002E0BB68013BBB60BB68002BF9D10B
:103A2C007B685B7E012B33D0FFF778FA0300FB60D9
:103A3C0027E07B681B681800FFF7A2FB031E04D16C
:103A4C007B681B681800FFF789FBFFF767FA020019
:103A5C00FB68D31A022B14D97B681B681B680122E4
:103A6C001340012B0DD07B689B6D10221A437B6891
:103A7C009A657B68DB6D01221A437B68DA6501234A
:103A8C0007E07B681B681B6801221340012BD0D117
:103A9C0000231800BD4604B080BDC046170000804E
:103AAC000827014000000020400D030090B583B0B2
:103ABC0000AF02003960FB1D1A70FB1D1B787F2BB9
:103ACC0028D82F4AFB1D1B785BB29B08C0339B0088
:103ADC009B58FA1D1278110003220A40D200FF21D4
:103AEC0091400A00D2431A4011003B689B01FF220F
:103AFC001A40FB1D1B78180003230340DB009A407F
:103B0C001F48FB1D1B785BB29B080A43C0339B000C
:103B1C001A5031E01B4AFB1D1B7819000F230B4078
:103B2C00083B9B0806339B00D31804331B68FA1D13
:103B3C001278110003220A40D200FF2191400A00A2
:103B4C00D2431A4011003B689B01FF221A40FB1D17
:103B5C001B78180003230340DB009A400948FB1D27
:103B6C001B781C000F232340083B9B080A43063399
:103B7C009B00C31804331A60C046BD4603B090BD09
:103B8C0000E100E000ED00E080B582B000AF7860AD
:103B9C007B685A1E80235B049A4201D3012310E0F8
:103BAC000A4B7A68013A5A6001235B4203211800E0
:103BBC00FFF77CFF054B00229A60044B07221A602A
:103BCC0000231800BD4602B080BDC04610E000E0E6
:103BDC0080B584B000AFB9607A600F217B18021CED
:103BEC001A70BA687B181B785BB211001800FFF7CB
:103BFC005DFFC046BD4604B080BD80B582B000AF4D
:103C0C0078607B681800FFF7BFFF03001800BD4603
:103C1C0002B080BD80B586B000AF786039600023FB
:103C2C007B614DE13B681B6801217A6991400A0078
:103C3C001340FB60FB68002B00D13EE13B685B68E6
:103C4C0003221340012B05D03B685B680322134011
:103C5C00022B30D17B689B683B617B695B00032244
:103C6C009A401300DA433B6913403B613B68DA68C6
:103C7C007B695B009A4013003A6913433B617B6894
:103C8C003A699A607B685B683B6101227B699A4068
:103C9C001300DA433B6913403B613B685B681B09CB
:103CAC0001221A407B699A4013003A6913433B6125
:103CBC007B683A695A603B685B6803221340032BAC
:103CCC0017D07B68DB683B617B695B0003229A4001
:103CDC001300DA433B6913403B613B689A687B698C
:103CEC005B009A4013003A6913433B617B683A6965
:103CFC00DA603B685B6803221340022B23D17B699B
:103D0C00DA087B6808329200D3583B617B69072242
:103D1C0013409B000F229A401300DA433B69134077
:103D2C003B613B681A697B6907210B409B009A40F9
:103D3C0013003A6913433B617B69DA087B680832EC
:103D4C0092003969D1507B681B683B617B695B00D1
:103D5C0003229A401300DA433B6913403B613B68F2
:103D6C005B6803221A407B695B009A4013003A6936
:103D7C0013433B617B683A691A603B685A68C023FD
:103D8C009B02134000D198E0534A7B699B0818337F
:103D9C009B009B583B617B6903221340DB000F2285
:103DAC009A401300DA433B6913403B617A68A023C5
:103DBC00DB059A4219D07B68484A934213D07B6842
:103DCC00474A93420DD07B68464A934207D07B68A2
:103DDC00454A934201D1042308E0052306E003235E
:103DEC0004E0022302E0012300E000237A690321AE
:103DFC000A40D20093403A6913433B6136497B69D0
:103E0C009B0818339B003A695A50334B1B683B6133
:103E1C00FB68DA433B6913403B613B685A6880237B
:103E2C005B03134003D03A69FB6813433B612A4B95
:103E3C003A691A60284B5B683B61FB68DA433B6963
:103E4C0013403B613B685A6880239B03134003D0AB
:103E5C003A69FB6813433B611F4B3A695A601E4A2F
:103E6C008423D3583B61FB68DA433B6913403B61C5
:103E7C003B685A6880239B02134003D03A69FB6865
:103E8C0013433B61144984223B698B50124A8023B3
:103E9C00D3583B61FB68DA433B6913403B613B6899
:103EAC005A6880235B02134003D03A69FB681343C2
:103EBC003B61094980223B698B507B6901337B61F3
:103ECC003B681A687B69DA40131E00D0AAE6C0462C
:103EDC00C046BD4606B080BD00180240000400502C
:103EEC0000080050000C00500010005080B582B04B
:103EFC0000AF786008001100BB1C021C1A807B1CF0
:103F0C000A1C1A707B1C1B78002B04D0BB1C1A8853
:103F1C007B689A6103E0BB1C1A887B689A62C04676
:103F2C00BD4602B080BD80B584B000AF78600A0099
:103F3C00BB1C1A807B685B69FB60BB1C1B88FA6826
:103F4C0013401A04FB68DB43B91C09880B401A4365
:103F5C007B689A61C046BD4604B080BD80B584B014
:103F6C0000AF7860194B1B68194A13401900174BA6
:103F7C007A680A431A607A6880239B009A421FD1A0
:103F8C00144B1A6813005B009B185B001249180055
:103F9C00FCF7CEF803000133FB6008E0FB68002B54
:103FAC0003D0FB68013BFB6001E0032309E0074BF6
:103FBC005A698023DB001A408023DB009A42EDD043
:103FCC0000231800BD4604B080BDC0460070004000
:103FDC00FFF9FFFF0000002040420F0080B500AF4A
:103FEC00034B9A68E023DB0113401800BD4680BDEB
:103FFC000010024080B588B000AF78607B68002B61
:10400C0002D1012300F050FB7B681B680122134096
:10401C0000D17CE0C34B9B6838221340BB61C14B81
:10402C00DB68032213407B61BB69102B02D17B69D7
:10403C00032B02D0BB69082B0BD1BA4B1A68802317
:10404C009B02134062D07B685B68002B5ED101231E
:10405C002AE37B685A6880235B029A4207D1B14BF2
:10406C001A68B04B802149020A431A6020E07B6831
:10407C005A68A023DB029A420ED1AA4B1A68A94BAC
:10408C008021C9020A431A60A64B1A68A54B8021ED
:10409C0049020A431A600BE0A24B1A68A14BA249D1
:1040AC000A401A609F4B1A689E4BA0490A401A603E
:1040BC007B685B68002B14D0FEF730FF03003B617C
:1040CC0008E0FEF72BFF02003B69D31A642B01D9E1
:1040DC000323E9E2934B1A6880239B021340F0D030
:1040EC0015E0FEF71BFF03003B6108E0FEF716FF2F
:1040FC0002003B69D31A642B01D90323D4E2894B08
:10410C001A6880239B021340F0D100E0C0467B6804
:10411C001B680222134000D199E0824B9B68382225
:10412C001340BB617F4BDB68032213407B61BB698F
:10413C00102B02D17B69022B02D0BB69002B35D12D
:10414C00784B1A688023DB00134005D07B68DB6852
:10415C00002B01D10123A7E2724B5B68744A134018
:10416C0019007B685B691A026E4B0A435A60BB6983
:10417C00002B12D16B4B1B686E4A134019007B68E5
:10418C001A69684B0A431A60664B1B68DB0A0722E4
:10419C001340694ADA40694B1A60694B1B68180076
:1041AC00FEF760FE031E51D001237DE27B68DB68C5
:1041BC00002B30D05B4B1B685E4A134019007B68A8
:1041CC001A69584B0A431A60564B1A68554B802192
:1041DC0049000A431A60FEF7A1FE03003B6108E0A8
:1041EC00FEF79CFE02003B69D31A022B01D9032374
:1041FC005AE24C4B1A688023DB001340F0D0494B39
:10420C005B684B4A134019007B685B691A02454B8B
:10421C000A435A601BE0434B1A68424B49490A4017
:10422C001A60FEF77BFE03003B6108E0FEF776FEAA
:10423C0002003B69D31A022B01D9032334E2394B18
:10424C001A688023DB001340F0D100E0C0467B6885
:10425C001B680822134047D0324B9B68382213400E
:10426C00182B0AD12F4B1B6E022213403CD07B68BB
:10427C009B69002B38D1012316E27B689B69002BCC
:10428C0019D0284B1A6E274B01210A431A66FEF7E8
:10429C0045FE03003B6108E0FEF740FE02003B696F
:1042AC00D31A022B01D90323FEE11E4B1B6E0222F3
:1042BC001340F1D018E01B4B1A6E1A4B01218A43A4
:1042CC001A66FEF72BFE03003B6108E0FEF726FEA4
:1042DC0002003B69D31A022B01D90323E4E1114BF1
:1042EC001B6E02221340F1D17B681B680422134021
:1042FC0000D1C7E01F23FB1800221A70094B9B68E2
:10430C0038221340202B1FD1064BDB6D02221340A9
:10431C0000D1B7E07B689B68002B00D0B2E0012392
:10432C00C2E1C04600100240FFFFFEFFFFFFFBFF93
:10433C00FF80FFFFFFC7FFFF0024F40000000020F8
:10434C0004000020FFFEFFFFB54BDA6B80235B05FA
:10435C00134001D1012300E00023002B11D0B04BFE
:10436C00DA6BAF4B802149050A43DA63AC4BDA6B4D
:10437C0080235B051340FB60FB681F23FB180122A5
:10438C001A70A84B1A6880235B0013401AD1A54BF6
:10439C001A68A44B802149000A431A60FEF7BEFD3F
:1043AC0003003B6108E0FEF7B9FD02003B69D31A3C
:1043BC00022B01D9032377E19A4B1A6880235B0007
:1043CC001340F0D07B689B68012B06D1944BDA6DBF
:1043DC00934B01210A43DA651CE07B689B68052B33
:1043EC000CD18F4BDA6D8E4B04210A43DA658C4B62
:1043FC00DA6D8B4B01210A43DA650BE0884BDA6DE1
:10440C00874B01218A43DA65854BDA6D844B042195
:10441C008A43DA657B689B68002B14D0FEF77EFD1F
:10442C0003003B6109E0FEF779FD02003B69D31AFA
:10443C007D4A934201D9032336E1794BDB6D02228D
:10444C001340F0D013E0FEF769FD03003B6109E077
:10445C00FEF764FD02003B69D31A734A934201D9FB
:10446C00032321E16E4BDB6D02221340F0D11F239D
:10447C00FB181B78012B05D1694BDA6B684B6B4928
:10448C000A40DA637B681B682022134039D07B68B2
:10449C00DB69002B1BD0624B1A68614B8021C9036E
:1044AC000A431A60FEF73AFD03003B6108E0FEF791
:1044BC0035FD02003B69D31A022B01D90323F3E02B
:1044CC00574B1A6880231B041340F0D019E0544B4F
:1044DC001A68534B56490A401A60FEF71FFD030039
:1044EC003B6108E0FEF71AFD02003B69D31A022B70
:1044FC0001D90323D8E04A4B1A6880231B041340CC
:10450C00F0D17B681B6A002B00D1CCE0444B9B683C
:10451C0038221340102B00D17BE07B681B6A022BE6
:10452C0056D13F4B1A683E4B42490A401A60FEF77F
:10453C00F5FC03003B6108E0FEF7F0FC02003B6970
:10454C00D31A022B01D90323AEE0354B1A68802312
:10455C009B041340F0D1324BDB68374A13401900EF
:10456C007B685A6A7B689B6A1A437B68DB6A1B020E
:10457C001A437B681B6B1A437B685B6B1A437B6823
:10458C009B6B1A43264B0A43DA60254B1A68244B63
:10459C00802149040A431A60214BDA68204B8021A0
:1045AC0049050A43DA60FEF7B9FC03003B6108E0F9
:1045BC00FEF7B4FC02003B69D31A022B01D903238A
:1045CC0072E0174B1A6880239B041340F0D06AE00A
:1045DC00134B1A68124B17490A401A60FEF79EFCDF
:1045EC0003003B6108E0FEF799FC02003B69D31A1B
:1045FC00022B01D9032357E0094B1A6880239B0433
:10460C001340F0D1064BDA68054B0C490A40DA60CE
:10461C0049E07B681B6A012B12D1012344E0C046A0
:10462C00001002400070004088130000FFFFFFEFF5
:10463C00FFFFBFFFFFFFFFFE8C80C111FCFFFEEEF2
:10464C001B4BDB687B617B6903221A407B685B6ACE
:10465C009A4226D17B6970221A407B689B6A9A42E7
:10466C001FD17A69FE23DB011A407B68DB6A1B02CF
:10467C009A4216D17A69F8239B031A407B681B6B0C
:10468C009A420ED17A69E0231B051A407B685B6B5A
:10469C009A4206D17B695B0F5A077B689B6B9A42E7
:1046AC0001D0012300E000231800BD4608B080BDF6
:1046BC000010024080B584B000AF786039607B6830
:1046CC00002B01D10123E9E0764B1B680722134034
:1046DC003A689A421ED9734B1B6807229343190000
:1046EC00704B3A680A431A60FEF718FC0300FB6033
:1046FC0009E0FEF713FC0200FB68D31A6A4A9342E6
:10470C0001D90323CAE0674B1B68072213403A68A0
:10471C009A42EED17B681B680222134015D07B684D
:10472C001B680422134006D0604B9A685F4BE02153
:10473C00C9010A439A605D4B9B685D4A134019009E
:10474C007B689A68594B0A439A607B681B68012204
:10475C00134057D07B685B68012B07D1534B1A6809
:10476C0080239B0213402BD1012397E07B685B686D
:10477C00022B07D14D4B1A6880239B0413401FD189
:10478C0001238BE07B685B68002B07D1474B1A68D1
:10479C008023DB00134013D101237FE07B685B682F
:1047AC00032B06D1414B1B6E0222134008D101236F
:1047BC0074E03E4BDB6D0222134001D101236DE00E
:1047CC003A4B9B680722934319007B685A68374B16
:1047DC000A439A60FEF7A2FB0300FB6009E0FEF7B8
:1047EC009DFB0200FB68D31A2F4A934201D9032385
:1047FC0054E02E4B9B6838221A407B685B68DB00C8
:10480C009A42ECD1274B1B68072213403A689A4214
:10481C001ED2244B1B68072293431900214B3A6884
:10482C000A431A60FEF77AFB0300FB6009E0FEF70F
:10483C0075FB0200FB68D31A1B4A934201D9032370
:10484C002CE0184B1B68072213403A689A42EED1B1
:10485C007B681B680422134009D0144B9B68154AD3
:10486C00134019007B68DA68104B0A439A6000F019
:10487C0029F801000D4B9B681B0A0F221A400E4BA6
:10488C009200D3581F2213400A00DA400B4B1A60D7
:10489C000B4B1B681800FEF7E5FA03001800BD4629
:1048AC0004B080BD002002408813000000100240BC
:1048BC00FFF0FFFFFF8FFFFF5C8C00080000002063
:1048CC000400002080B586B000AF3C4B9B683822BA
:1048DC0013400FD1394B1B68DB0A0722134001220E
:1048EC009A4013003B6039683548FBF721FC030004
:1048FC003B615DE0314B9B6838221340082B02D1A1
:10490C00304B3B6154E02D4B9B6838221340102BED
:10491C0038D12A4BDB6803221340FB60274BDB6842
:10492C001B09072213400133BB60FB68032B0DD11D
:10493C00B9682448FBF7FCFB030019001F4BDB682C
:10494C001B0A7F2213404B437B610DE0B9681C4866
:10495C00FBF7EEFB03001900184BDB681B0A7F22E8
:10496C0013404B437B61C046144BDB685B0F072243
:10497C00134001337B6079687869FBF7D9FB03003E
:10498C003B6115E00D4B9B6838221340202B03D163
:10499C0080231B023B610BE0084B9B6838221340C1
:1049AC00182B03D1FA23DB013B6101E000233B61AF
:1049BC003B691800BD4606B080BDC04600100240E1
:1049CC000024F40000127A0080B500AF024B1B6883
:1049DC001800BD4680BDC04600000020B0B500AF39
:1049EC00FFF7F2FF0400FFF7F9FA03001A0B054B6F
:1049FC009200D3581F221340DC4023001800BD4600
:104A0C00B0BDC0469C8C000880B586B000AF786005
:104A1C001323FB1800221A701223FB1800221A70A1
:104A2C007B681A6880239B02134000D1ADE01120F3
:104A3C003B1800221A70474BDA6B80235B0513403E
:104A4C0010D1444BDA6B434B802149050A43DA639E
:104A5C00404BDA6B80235B051340BB60BB683B1893
:104A6C0001221A703C4B1A683B4B802149000A43C7
:104A7C001A60FEF753FA0300FB600BE0FEF74EFAE8
:104A8C000200FB68D31A022B04D91323FB18032250
:104A9C001A7005E0304B1A6880235B001340EDD090
:104AAC001323FB181B78002B5ED12A4BDA6DC02325
:104ABC009B0013407B617B69002B19D07B681B6CBE
:104ACC007A699A4214D0234BDB6D244A13407B61E4
:104ADC00204BDA6D1F4B802149020A43DA651D4BCE
:104AEC00DA6D1C4B1E490A40DA651A4B7A69DA6595
:104AFC007B690122134016D0FEF710FA0300FB600D
:104B0C000CE0FEF70BFA0200FB68D31A154A93422D
:104B1C0004D91323FB1803221A7004E00D4BDB6D30
:104B2C0002221340EDD01323FB181B78002B0AD163
:104B3C00084BDB6D094A134019007B681A6C054B56
:104B4C000A43DA6516E01223FB181322BA181278FE
:104B5C001A700FE00010024000700040FFFCFFFFD5
:104B6C00FFFFFEFF881300001223FB181322BA1854
:104B7C0012781A701123FB181B78012B05D1B64B38
:104B8C00DA6BB54BB5490A40DA637B681B680122C6
:104B9C00134009D0B04B5B6D0322934319007B6823
:104BAC005A68AD4B0A435A657B681B680222134056
:104BBC0009D0A94B5B6D0C22934319007B689A6852
:104BCC00A54B0A435A657B681B680422134009D025
:104BDC00A14B5B6D3022934319007B68DA689E4BC6
:104BEC000A435A657B681B681022134009D09A4B04
:104BFC005B6D9B4A134019007B681A69964B0A43FC
:104C0C005A657B681A6880235B01134009D0924B6C
:104C1C005B6D944A134019007B685A698E4B0A43AA
:104C2C005A657B681A6880239B00134009D08A4B15
:104C3C005B6D8D4A134019007B689A6A864B0A4358
:104C4C005A657B681A688023DB00134009D0824BBD
:104C5C005B6D864A134019007B68DA6A7E4B0A4307
:104C6C005A657B681B682022134009D07A4B5B6D18
:104C7C007F4A134019007B689A69774B0A435A653F
:104C8C007B681B684022134009D0734B5B6D794ADB
:104C9C00134019007B68DA696F4B0A435A657B68CD
:104CAC001A688023DB01134015D06B4B5B6D9B00A6
:104CBC0099087B681A6B684B0A435A657B681A6BB8
:104CCC008023DB059A4206D1634BDA68624B802164
:104CDC0049020A43DA607B681A6880231B0313407D
:104CEC0009D05D4B5B6D4022934319007B685A6B76
:104CFC00594B0A435A657B681A6880239B031340FF
:104D0C0016D0554B5B6D5C4A134019007B689A6B4F
:104D1C00514B0A435A657B689A6B8023DB039A429A
:104D2C0006D14D4BDA684C4B802149040A43DA60BA
:104D3C007B681A688023DB03134016D0464B5B6DEF
:104D4C004E4A134019007B68DA6B434B0A435A6591
:104D5C007B68DA6B80235B049A4206D13E4BDA689F
:104D6C003D4B802149040A43DA607B681A68802332
:104D7C001B01134014D0384B9B6D03229343190035
:104D8C007B681A6A344B0A439A657B681B6A012B51
:104D9C0006D1314BDA68304B802149020A43DA6084
:104DAC007B681A6880239B01134014D02A4B9B6D9F
:104DBC000C22934319007B685A6A274B0A439A6565
:104DCC007B685B6A042B06D1234BDA68224B80216B
:104DDC0049020A43DA607B681A6880235B0413403B
:104DEC0016D01D4B9B6D224A134019007B685A6CE0
:104DFC00194B0A439A657B685A6C80239B019A4233
:104E0C0006D1154BDA68144B802149040A43DA6049
:104E1C007B681A6880239B04134016D00E4B9B6D45
:104E2C00104A134019007B689A6C0B4B0A439A6525
:104E3C007B689A6C80235B009A4206D1064BDA6839
:104E4C00054B802149040A43DA601223FB181B78B6
:104E5C001800BD4606B080BD00100240FFFFFFEFFA
:104E6C00FFF3FFFFFFFCFFFFFFFFF3FFFFFFCFFF91
:104E7C00FFCFFFFFFF3FFFFFFFFFBFFFFFFFFFFE67
:104E8C0080B582B000AF78607B68002B01D1012324
:104E9C0046E07B6888229B58002B07D17B688422D4
:104EAC00002199547B681800FDF752FE7B6888221C
:104EBC00242199507B681B681A687B681B68012148
:104ECC008A431A607B689B6A002B03D07B681800AE
:104EDC0000F030FC7B68180000F0D6F80300012BC2
:104EEC0001D101231CE07B681B685A687B681B6836
:104EFC000D490A405A607B681B689A687B681B687E
:104F0C002A218A439A607B681B681A687B681B6835
:104F1C0001210A431A607B68180000F0BFFC0300F3
:104F2C001800BD4602B080BDFFB7FFFF80B58AB048
:104F3C0002AFF860B9603B60BB1D1A80FB68882229
:104F4C009B58202B00D09AE0BB68002B03D0BB1DD4
:104F5C001B88002B01D1012392E0FB689A68802307
:104F6C005B019A4209D1FB681B69002B05D1BB6818
:104F7C000122134001D0012382E0FB689022002122
:104F8C009950FB68882221219950FDF7C7FF030037
:104F9C007B61FB68BA1D542112885A52FB68BA1DFA
:104FAC00562112885A52FB689A6880235B019A42F8
:104FBC0008D1FB681B69002B04D10023FB61BB6883
:104FCC00BB6103E0BB68FB610023BB613AE07A691B
:104FDC00F8683B68009313000022802100F008FD64
:104FEC00031E05D0FB68882220219950032347E03B
:104FFC00FB69002B0BD1BB691B881A00FB681B6873
:10500C00D205D20D9A62BB690233BB6107E0FB6922
:10501C001A78FB681B689A62FB690133FB61FB68B9
:10502C0088229B5821221340212B09D1FB68562240
:10503C009B5A9BB2013B99B2FB685622995201E0F4
:10504C0001231DE0FB6856229B5A9BB2002BBED15C
:10505C007A69F8683B68009313000022402100F045
:10506C00C7FC031E05D0FB6888222021995003231E
:10507C0006E0FB68882220219950002300E00223DF
:10508C001800BD4608B080BDB0B590B000AF7862D6
:10509C001A2320229B18DB1900221A707B6A9A684B
:1050AC007B6A1B691A437B6A5B691A437B6ADB69FF
:1050BC001343FB637B6A1B681B68C14A13401900CE
:1050CC007B6A1A68FB6B0B4313607B6A1B685B681B
:1050DC00BC4A134018007B6AD9687B6A1A680300C3
:1050EC000B4353607B6A9B69FB637B6A1B68B64A04
:1050FC00934209D07B6A1B68B44A934204D07B6A02
:10510C001B6AFA6B1343FB637B6A1B689B68B04A90
:10511C00134019007B6A1A68FB6B0B4393607B6A24
:10512C001B68DB6A0F22934318007B6A596A7B6AFF
:10513C001A6803000B43D3627B6A1B68A54A93422F
:10514C0031D1A54B5B6D03221340032B1DD023D80B
:10515C00022B0CD020D8002B02D0012B0ED01BE040
:10516C001B2320229B18DB1900221A7054E11B23ED
:10517C0020229B18DB1902221A704DE11B232022DE
:10518C009B18DB1904221A7046E11B2320229B1862
:10519C00DB1908221A703FE11B2320229B18DB1914
:1051AC0010221A7038E17B6A1B688C4A934231D109
:1051BC00894B5B6D0C2213400C2B1DD023D8082B74
:1051CC000CD020D8002B02D0042B0ED01BE01B23BC
:1051DC0020229B18DB1900221A701DE11B232022B0
:1051EC009B18DB1902221A7016E11B2320229B1834
:1051FC00DB1904221A700FE11B2320229B18DB19E8
:10520C0008221A7008E11B2320229B18DB1910229C
:10521C001A7001E17B6A1B68714A934231D16E4B63
:10522C005B6D30221340302B1DD023D8202B0CD09B
:10523C0020D8002B02D0102B0ED01BE01B232022D9
:10524C009B18DB1900221A70E6E01B2320229B1806
:10525C00DB1902221A70DFE01B2320229B18DB19BA
:10526C0004221A70D8E01B2320229B18DB19082279
:10527C001A70D1E01B2320229B18DB1910221A7004
:10528C00CAE07B6A1B68574A934206D11B23202233
:10529C009B18DB1900221A70BEE07B6A1B68524A0D
:1052AC00934206D11B2320229B18DB1900221A7073
:1052BC00B2E07B6A1B684D4A934206D11B23202225
:1052CC009B18DB1900221A70A6E07B6A1B683E4A09
:1052DC0093423ED1404B5A6DC0231B011340C02258
:1052EC001201934227D0C022120193422AD8802265
:1052FC001201934211D080221201934222D8002B2A
:10530C0004D08022D20093420ED01BE01B2320221B
:10531C009B18DB1900221A707EE01B2320229B189D
:10532C00DB1902221A7077E01B2320229B18DB1951
:10533C0004221A7070E01B2320229B18DB19082210
:10534C001A7069E01B2320229B18DB1910221A709B
:10535C0062E07B6A1B681D4A934257D11E4B5A6D03
:10536C00C0239B001340C0229200934240D0C02225
:10537C009200934243D880229200934211D0802213
:10538C00920093423BD8002B04D0802252009342CF
:10539C000ED034E01B2320229B18DB1900221A703C
:1053AC003AE01B2320229B18DB1902221A7033E0EF
:1053BC001B2320229B18DB1904221A702CE0C046F8
:1053CC00F369FFCFFFCFFFFF008000400084004057
:1053DC00FFF4FF110038014000100240004400406F
:1053EC0000480040004C004000500040003C014090
:1053FC001B2320229B18DB1908221A700CE01B239C
:10540C0020229B18DB1910221A7005E01B23202286
:10541C009B18DB1910221A707B6A1B68C14A9342D5
:10542C0005D07B6A1B68C04A934200D093E01B23D3
:10543C0020229B18DB191B78082B15D018DC042BA9
:10544C000DD015DC002B02D0022B05D010E0FFF79D
:10545C00C5FA03007B6314E0B44B7B6311E0FFF7E8
:10546C0031FA03007B630CE080231B027B6308E0B2
:10547C0000237B631A2320229B18DB1901221A704C
:10548C00C0467B6B002B00D135E17B6A5A6AA84B76
:10549C005200D35A1900786BFAF74AFE0300BB622C
:1054AC007B6A5A6813005B009B18BA6A9A4205D350
:1054BC007B6A5B681B03BA6A9A4206D91A232022BC
:1054CC009B18DB1901221A7044E07B6BBB61002333
:1054DC00FB617B6A5A6A964B5200D35A3B6100239C
:1054EC007B613A697B69B869F969FAF7D5FF020003
:1054FC000B00110E1D020D4314027B6A5B685B08E6
:10550C00BB600023FB60B868F968001969417B6ACD
:10551C005B683B6000237B603A687B68FAF7BCFFF2
:10552C0002000B0013003B633A6BC0239B009A42B2
:10553C0009D33A6B80235B039A4204D27B6A1B68C3
:10554C003A6BDA6006E01A2320229B18DB19012241
:10555C001A70D0E0CFE07B6ADA6980231B029A4292
:10556C0000D070E01B2320229B18DB191B78082B22
:10557C0015D018DC042B0DD015DC002B02D0022B1F
:10558C0005D010E0FFF72AFA03007B6314E0674BA9
:10559C007B6311E0FFF796F903007B630CE080233B
:1055AC001B027B6308E000237B631A2320229B18D9
:1055BC00DB1901221A70C0467B6B002B00D19AE0DC
:1055CC007B6A5A6A5A4B5200D35A1900786BFAF715
:1055DC00AFFD03005A007B6A5B685B08D2187B6ADC
:1055EC005B6819001000FAF7A3FD03003B633B6BEB
:1055FC000F2B21D93A6B80235B029A421CD23B6B56
:10560C009AB20E2020240319DB190F218A431A8029
:10561C003B6B5B089BB20722134099B20319DB1951
:10562C000219D21912880A431A807B6A1B68021964
:10563C00D2191288DA605EE01A2320229B18DB193B
:10564C0001221A7057E01B2320229B18DB191B78B0
:10565C00082B15D018DC042B0DD015DC002B02D038
:10566C00022B05D010E0FFF7B9F903007B6314E0BF
:10567C002E4B7B6311E0FFF725F903007B630CE0F5
:10568C0080231B027B6308E000237B631A23202208
:10569C009B18DB1901221A70C0467B6B002B2AD099
:1056AC007B6A5A6A224B5200D35A1900786BFAF76C
:1056BC003FFD03001A007B6A5B685B08D2187B6AAB
:1056CC005B6819001000FAF733FD03003B633B6B7A
:1056DC000F2B0AD93A6B80235B029A4205D23B6BA3
:1056EC009AB27B6A1B68DA6005E01A2320229B18A9
:1056FC00DB1901221A707B6A6A22012199527B6A9A
:10570C006822012199527B6A00225A677B6A002227
:10571C009A671A2320229B18DB191B781800BD46A8
:10572C0010B0B0BD00800040008400400024F400A4
:10573C00BC8C000880B582B000AF78607B689B6A37
:10574C00082213400BD07B681B685B684A4A1340E5
:10575C0019007B689A6B7B681B680A435A607B68EC
:10576C009B6A012213400BD07B681B685B68434A21
:10577C00134019007B68DA6A7B681B680A435A601D
:10578C007B689B6A022213400BD07B681B685B68AA
:10579C003B4A134019007B681A6B7B681B680A43F1
:1057AC005A607B689B6A042213400BD07B681B6891
:1057BC005B68344A134019007B685A6B7B681B6822
:1057CC000A435A607B689B6A102213400BD07B689B
:1057DC001B689B682C4A134019007B68DA6B7B684A
:1057EC001B680A439A607B689B6A202213400BD08B
:1057FC007B681B689B68254A134019007B681A6CF0
:10580C007B681B680A439A607B689B6A4022134042
:10581C001DD07B681B685B681D4A134019007B68B0
:10582C005A6C7B681B680A435A607B685A6C8023ED
:10583C005B039A420BD17B681B685B68154A13406B
:10584C0019007B689A6C7B681B680A435A607B68FA
:10585C009B6A802213400BD07B681B685B680E4AE6
:10586C00134019007B68DA6C7B681B680A435A602A
:10587C00C046BD4602B080BDFF7FFFFFFFFFFDFFAE
:10588C00FFFFFEFFFFFFFBFFFFEFFFFFFFDFFFFF51
:10589C00FFFFEFFFFFFF9FFFFFFFF7FF80B592B009
:1058AC0002AF78607B68902200219950FDF736FB9F
:1058BC000300FB637B681B681B6808221340082BE2
:1058CC002DD1FB6B802291037868474A009200220D
:1058DC0000F08EF8031E22D0EFF310837B627B6AFC
:1058EC00BB630123BB62BB6A83F31088C0467B6831
:1058FC001B681A687B681B6880218A431A60BB6B23
:10590C00FB62FB6A83F31088C0467B6888222021E7
:10591C0099507B68842200219954032360E07B68B2
:10592C001B681B6804221340042B46D1FB6B80229E
:10593C00D10378682C4A0092002200F059F8031E1B
:10594C003BD0EFF31083FB60FB687B6301233B616F
:10595C003B6983F31088C0467B681B681A687B68B8
:10596C001B6822490A401A607B6B7B617B6983F35D
:10597C001088C046EFF31083BB61BB693B63012306
:10598C00FB61FB6983F31088C0467B681B689A68CF
:10599C007B681B6801218A439A603B6B3B623B6AC4
:1059AC0083F31088C0467B688C22202199507B6839
:1059BC00842200219954032312E07B688822202141
:1059CC0099507B688C22202199507B680022DA66E2
:1059DC007B6800221A677B6884220021995400237B
:1059EC001800BD4610B080BDFFFFFF01DFFEFFFFBA
:1059FC0080B584B000AFF860B9603B60FB1D1A70D5
:105A0C0051E0BB6901334ED0FDF788FA02003B68C8
:105A1C00D31ABA699A4202D3BB69002B01D1032372
:105A2C0051E0FB681B681B68042213403BD0BB6829
:105A3C00802B38D0BB68402B35D0FB681B68DB69EA
:105A4C0008221340082B11D1FB681B6808221A622C
:105A5C00FB68180000F03CF8FB6890220821995074
:105A6C00FB6884220021995401232CE0FB681B68FD
:105A7C00DA6980231B011A4080231B019A4212D140
:105A8C00FB681B68802212011A62FB68180000F088
:105A9C001FF8FB68902220219950FB68842200217A
:105AAC00995403230FE0FB681B68DB69BA68134049
:105ABC00BA68D31A5A425341DBB21A00FB1D1B7849
:105ACC009A429ED000231800BD4604B080BD000051
