:020000040800F2
:1000000000900020F5360008213500082935000849
:1000100000000000000000000000000000000000E0
:100020000000000000000000000000003135000862
:1000300000000000000000003B35000845350008C6
:100040004537000800000000453700084537000824
:100050004537000845370008453700084537000890
:100060000000000045370008453700084537000804
:1000700045370008453700084537000800000000F4
:100080004537000845370008453700084537000860
:100090004537000845370008453700084537000850
:1000A0004537000845370008453700084537000840
:0800B000453700085535000832
:1000B80010B5064C2378002B07D1054B002B02D036
:1000C800044800E000BF0123237010BDF80600209B
:1000D8000000000008BF0008044B10B5002B03D037
:1000E8000349044800E000BF10BDC04600000000FE
:1000F800FC06002008BF00080023C25C0133002A68
:10010800FBD1581E7047000002B4714649084900E7
:10011800095C49008E4402BC7047C04603B471466E
:10012800490840004900095A49008E4403BC7047F9
:10013800002243088B4274D303098B425FD3030A1E
:100148008B4244D3030B8B4228D3030C8B420DD331
:10015800FF22090212BA030C8B4202D312120902BF
:1001680065D0030B8B4219D300E0090AC30B8B42FD
:1001780001D3CB03C01A5241830B8B4201D38B03AB
:10018800C01A5241430B8B4201D34B03C01A524150
:10019800030B8B4201D30B03C01A5241C30A8B4293
:1001A80001D3CB02C01A5241830A8B4201D38B027E
:1001B800C01A5241430A8B4201D34B02C01A524122
:1001C800030A8B4201D30B02C01A5241CDD2C30994
:1001D8008B4201D3CB01C01A524183098B4201D310
:1001E8008B01C01A524143098B4201D34B01C01AFB
:1001F800524103098B4201D30B01C01A5241C30873
:100208008B4201D3CB00C01A524183088B4201D3E1
:100218008B00C01A524143088B4201D34B00C01ACD
:100228005241411A00D20146524110467047FFE739
:1002380001B5002000F0F0F802BDC0460029F7D053
:1002480076E7704703460B437FD4002243088B426E
:1002580074D303098B425FD3030A8B4244D3030B45
:100268008B4228D3030C8B420DD3FF22090212BA0A
:10027800030C8B4202D31212090265D0030B8B4286
:1002880019D300E0090AC30B8B4201D3CB03C01A70
:100298005241830B8B4201D38B03C01A5241430B4B
:1002A8008B4201D34B03C01A5241030B8B4201D33B
:1002B8000B03C01A5241C30A8B4201D3CB02C01AA6
:1002C8005241830A8B4201D38B02C01A5241430A1E
:1002D8008B4201D34B02C01A5241030A8B4201D30D
:1002E8000B02C01A5241CDD2C3098B4201D3CB01B4
:1002F800C01A524183098B4201D38B01C01A524163
:1003080043098B4201D34B01C01A524103098B4266
:1003180001D30B01C01A5241C3088B4201D3CB0051
:10032800C01A524183088B4201D38B00C01A524134
:1003380043088B4201D34B00C01A5241411A00D2E4
:1003480001465241104670475DE0CA0F00D049424D
:10035800031000D34042534000229C4603098B42BD
:100368002DD3030A8B4212D3FC22890112BA030A45
:100378008B420CD3890192118B4208D389019211C7
:100388008B4204D389013AD0921100E08909C3094C
:100398008B4201D3CB01C01A524183098B4201D34E
:1003A8008B01C01A524143098B4201D34B01C01A39
:1003B800524103098B4201D30B01C01A5241C308B1
:1003C8008B4201D3CB00C01A524183088B4201D320
:1003D8008B00C01A5241D9D243088B4201D34B003B
:1003E800C01A5241411A00D20146634652415B107D
:1003F800104601D34042002B00D54942704763465E
:100408005B1000D3404201B5002000F005F802BDA2
:100418000029F8D016E770477047C0468446100098
:1004280062468C461900634600E0C0461FB501F0DD
:1004380071FC002801D40021C8421FBD10B501F08D
:10044800B5FB4042013010BD10B501F063FC002837
:1004580001DB002010BD012010BDC04610B501F021
:1004680059FC002801DD002010BD012010BDC04648
:1004780010B501F0DFFB002801DC002010BD0120D1
:1004880010BDC04610B501F0D5FB002801DA0020E8
:1004980010BD012010BDC046002B11D1002A0FD17C
:1004A800002900D1002802D00021C943080007B460
:1004B800024802A14018029003BDC0465DFFFFFF3D
:1004C80003B4684601B5029800F006F8019B9E4601
:1004D80002B00CBC7047C046F0B557464E4645467C
:1004E800DE46E0B504000D009246994683B08B4283
:1004F80030D82DD04946504602F080FC290006002D
:10050800200002F07BFC331A9846203B34D49B46EB
:1005180053465A46934042461F00534693401E0096
:10052800AF423BD8AF4200D179E05B46A41BBD4146
:10053800002B00DA76E000220023009201930123C9
:100548005A4693400193012342469340009329E081
:100558008242CFD900220023009201930C9B002BEA
:1005680001D01C605D600098019903B0F0BCBB46E7
:10057800B246A946A046F0BD42469B4620239B1A98
:100588005246DA40414613004A468A40170042461E
:100598001F43534693401E00AF42C3D90022002395
:1005A800009201934346002BD8D0FB0772081A43E8
:1005B80046467B080EE0AB4201D1A2420CD8A41AF1
:1005C8009D41012024196D410021013E24184D410F
:1005D800002E06D0AB42EED9013E24196D41002E03
:1005E800F8D1009801995B4600196941002B24DB7A
:1005F8002B005A464446D3402A00E2401C005B4682
:100608001500002B2ADB26009E40330026004746B3
:10061800BE403200801A9941009001919EE7A342A2
:10062800BCD882E74246202300219B1A0022009171
:1006380001920122DA40019285E7424620239B1A63
:100648002A0046469A402300F340444613432A00B2
:10065800E2401C005B461500002BD4DA42462F000E
:100668002023260097409B1ADE403B003343CDE70A
:10067800F0B546464F46D6464502C0B5C30F4700BB
:1006880098460E1C6D0A3F0E5BD0FF2F21D08023A9
:10069800ED00DB041D43002399469A467F3F740210
:1006A8007300640A1B0EF60F002B20D0FF2B43D0DB
:1006B80080220020E400D20414437F3B4246FF1A04
:1006C8004B4672400F2B00D99DE071499B00CB58D7
:1006D8009F46002D5AD108239946063B74029A4634
:1006E8007300FF27640A1B0EF60F002BDED1002CC7
:1006F8003BD1012342464946724019430E2918D876
:100708006448890041588F465346022B00D1B8E00F
:10071800032B6ED042462C00012B40D10020002430
:10072800C0052043D2071043E0BCBA46B146A846EC
:10073800F0BDFF200024F3E7002C20D10223FF3F67
:10074800D8E7002D05D104239946033B00279A4694
:10075800A5E7280002F034FB7627431F9D400023BD
:100768007F4299469A463F1A99E7200002F028FBF3
:10077800431F9C4076235B421B1A00209EE70323FD
:100788004A461A4391460320FC3397E70C239946BF
:10079800093BFF279A4682E703282CD0320038000D
:1007A8007F30002847DD630704D00F232340042B44
:1007B80000D00434230103D53800374B80301C4067
:1007C800FE28B6DCA401640AC0B2A9E7802400228E
:1007D800FF20E403A4E78023DB031D4201D01C4271
:1007E8000BD08024E4032C4364024246FF20640AB1
:1007F80096E746462C008023DB031C436402320044
:10080800FF20640A8CE76D01600185422DD21B230D
:100818000024013F0126290064006D00002901DB46
:10082800854201D32D1A3443013B002BF3D16B1EB3
:100838009D412C43B3E701231B1A1B2B00DD6DE7F9
:1008480021009E37D940BC400B00611E8C412343D8
:10085800590704D00F211940042900D00433590145
:1008680013D49B0100205C0A5AE71A2301242D1A8D
:10087800D0E7981E43425841404232000024C0B29B
:100888004EE74246FF2000244AE70120002447E7BC
:10089800B4C10008F4C10008FFFFFFF7F8B54746E8
:1008A800CE46430280B55F0A9B0945004A009C4634
:1008B8004B02C40FCE0F2D0E580A120E9909FF2AAB
:1008C8006BD001235E40AB1AB4424BD0002B00DC46
:1008D800FFE0002A00D188E0FF2D00D1EFE0802260
:1008E800D204114301201B2B08DC08002022D84029
:1008F800D31A99400B005A1E9341184363461B1A9A
:100908009C4663465B0100D4CDE063469F01BF0966
:10091800380002F055FA3B0005388340854200DC78
:10092800A2E0B74A2D1A1A4094465A0700D1C3E0EC
:100938000F221340042B00D1BEE004239846C44480
:1009480063465B0100D4B7E0681CFE2D00D0A5E02B
:10095800FF200022C0051043E4072043C0BCB9466D
:10096800B046F8BD002B00DCEBE1002A46D0FF2D95
:1009780000D1A4E08022D20411431B2B00DCFBE051
:10098800052398462B00C4446246D708FF2B00D1A4
:1009980095E07A02520AD8B2DCE72B00FF3B994671
:1009A800002918D101235E40B44200D1CAE04B4669
:1009B800002B2DD0002D00D03CE1FF236446002CF5
:1009C80000D15FE15D1E012B00D174E13400FF2BE3
:1009D80074D02B0003E1B44200D19CE0002B17D067
:1009E800002DEAD0070034006CE00029CCD05A1E54
:1009F800012B2BD0FF2B62D0130073E70029C3D043
:100A08005A1E012B00D11EE1FF2B58D01300B4E76A
:100A1800FE226B1C1A420DD1002D60D06346002BBC
:100A280000D020E1002900D028E180220024FF2006
:100A3800D2038FE763465F1A7B0100D5FEE0002FE3
:100A480000D065E700240020002283E76346591A96
:100A58004B0100D419E18F01BF09380002F0B0F949
:100A68003B000538834001252022401B0130121A23
:100A780019009340C1405A1E934119438C460B1EDE
:100A8800E1D05B0700D152E10F2300250B40042B76
:100A980000D052E701204A0100D492E0C0B2634678
:100AA8009A01520A56E763465B0705D00F23624650
:100AB8001340042B00D040E72B0065E70700002F08
:100AC80000D145E78022D2033A435202FF20520A5E
:100AD80040E7002B79D1FE226B1C1A42AAD163464B
:100AE800002B00D1F5E0002900D1D1E05F1A802366
:100AF800DB041F4200D10EE1624601248A1A9446A3
:100B080000203440002A00D124E701201A42C6D12F
:100B18000023D7083DE7002B17D0002D00D0AFE009
:100B2800FF236546002D00D1ADE05E1E012B00D1EC
:100B380089E0FF2BC2D01B2E00DCABE04B1D9C468E
:100B4800130021E74B46002B70D1FE226B1C1A4282
:100B58005ED1002D00D0C3E06346002B00D1D0E069
:100B6800002900D194E00A006244530100D4D8E07F
:100B780092010120520AEDE608002022D840D31A3B
:100B880099400B005A1E934103439C4463465B0102
:100B980089D50135FF2D00D1DAE6624601231949CE
:100BA800134052080A401A43130094465B0704D0C6
:100BB8000F231340042B00D0BFE663465B0100D52A
:100BC800C2E66346DF082B00E3E6531B002D00D185
:100BD800F4E680206446C0040443A446340001209F
:100BE8001B2B09DC20256046D840EB1A65469D4042
:100BF8002B005D1EAB4118430B1A9C46150080E67E
:100C0800FFFFFFFBFFFFFF7DFE226B1C1342A3D0FB
:100C1800FF2B00D19CE6614449084A0749D00F22BE
:100C28000A40042A45D00A1D9446ADE6002D00D19D
:100C380076E78DE63400FF2000228BE66346012428
:100C4800CF1A344064E661444B016DD548084449E5
:100C5800014043072CD00F230340042B28D00B1D41
:100C68009C46022390E6002900D12BE78023DB0372
:100C78009F4200D226E7984200D323E7012434405C
:100C880007001FE734008C467EE60123CF0880E684
:100C980000237EE620206546801B854063462800A9
:100CA800F340451EA84103439C4615008C446DE75C
:100CB8000223CF086DE60F1B7B0128D5BF01BF09B2
:100CC800380002F07DF83B000538834034000125E8
:100CD800CAE6002900D1B5E601240700344058E6E9
:100CE8006346002B00D1E9E6002900D1EAE680231B
:100CF800DB039F4200D2E5E6984200D3E2E6070014
:100D0800E0E6002900D19EE60023CF0841E6340042
:100D18000123FF083DE6002F00D193E60023FF08DA
:100D280037E60023D70834E60123CF0831E68022CE
:100D38000B00D20401201340114200D0AEE6CF08C8
:100D480027E6002B00D15FE7561B002D01D13300A9
:100D5800E7E680236046DB0418438446EBE6C0469A
:100D6800FFFFFF7D10B5041E0DD002F029F89E2369
:100D78001B1A962B0CDC082834D0083884406402EF
:100D8800640AD8B201E000200024C005204310BD49
:100D9800992B13DC421F9440144A224061071CD04F
:100DA8000F212140042918D00432D408520115D546
:100DB8009F236402181A640AC0B2E6E70200210001
:100DC8001B3291400A00511E8A410521091ACC4064
:100DD8001443064A22406107E2D1D4086402640A37
:100DE800D8B2D2E76402640A8E30CEE7FFFFFFFB79
:100DF800F0B54F464646D646C0B582B00090019140
:100E08000E034C00CD0F710A009E5F00760F0E4353
:100E1800009900920193C900894619037B0D9846F1
:100E2800019B490ADB0F9C46009B009A5B0F0B4312
:100E38004146640DD200611A654500D1A6E000293B
:100E480072DD4746002F00D1DDE0CC4FBC4200D117
:100E58009AE10127382917DC80273F043B431F29E3
:100E680000DDDDE12027781A1F008740BA46170009
:100E7800CF40844638005746074360468240CB40FF
:100E8800501E8241F61A17434B46DF1BB945804175
:100E98004042361A330200D4FFE07602760A002E6A
:100EA80000D13CE1300001F08BFF0300083B20211A
:100EB8003800CA1AD0409E4002009F4032439C42EC
:100EC80000DDA6E1181B0130091A3E008F40C6401C
:100ED8007B1E9F4113008B4037431F43C2403B009A
:100EE80016000024134300D1DFE17B0700D132E371
:100EF8000F233A003B40042B04D03A1DBA42BF41AD
:100F08007F42F619330200D423E39C4B01349C4200
:100F180000D1B4E09A4B64051E40640D7707D208EF
:100F280076021743360BACE0002900D17EE041463B
:100F3800091B002C00D060E134004846044300D16E
:100F4800C9E14C1E012900D12EE28C4DA94200D1E5
:100F580024E20127382C11DC21001F2900DD0BE2D7
:100F6800202437004846641AA740C840074348462B
:100F7800A040CE40441EA0419B1B0743D71BBA424A
:100F880092415242654644469E1A83E7002900DC96
:100F98009CE04746002F67D11F00174300D1E4E0CB
:100FA800481E012900D19BE1744FB94200D1EBE002
:100FB80001270100382811DC1F2900DDC7E120279F
:100FC800781A1F00844687401000C84007436046CF
:100FD8008240CB40501E8241F61817434F444F457C
:100FE800804140423618330257D5644B01349C4245
:100FF80045D00121624B7A081E4039400A43F70761
:101008001743760871E71F00174300D1ADE04F1E64
:10101800BC46012900D182E1584FB94200D190E184
:1010280061460127382900DD2EE718E7554F611C76
:10103800394200D0D0E0310048461F000143174331
:10104800002C00D03DE1002900D1BCE1002F00D0E8
:10105800BFE14B460021D80877070743F00806038D
:101068004C05360B640D0CE0444FBC4200D18BE0BC
:1010780001273829B2DC80273F043B439CE7002640
:10108800002724053443ED072C433800210002B023
:10109800E0BCBA46B146A846F0BD7B0704D00F2392
:1010A8003B40042B00D028E7F808344B7707074368
:1010B800F0089C4200D04AE23B00034359D0802606
:1010C8003603064336032D4C360BDAE7002961D088
:1010D8004146091B002C00D1B9E0284CA04500D19D
:1010E800A5E10127382913DC8024240426431F297D
:1010F80000DDC8E1202437004846641AA740C840EC
:1011080007434846A040CE40441EA0419B190743D0
:10111800BF189742924152424446D61863E73800B6
:1011280001F04EFE030018331F2B00DCBFE63A0027
:10113800083882409C4200DD83E01B1B581C1F2896
:1011480000DCB4E117001F3BDF40202805D0402316
:101158001B1A9A40531E9A4117430024002F0AD0A5
:101168007B0700D0C4E626009EE74B460C00D80853
:101178009BE70027014C002683E7C046FF070000D5
:10118800FFFF7FFFFE0700004B467707D80807439D
:10119800F00891E7CD4F611C39426BD131004846C8
:1011A8000143002C00D04BE11F001743002900D158
:1011B80081E1002F00D14CE74A444A458041F618A6
:1011C80040423618330200D5B0E117009146374344
:1011D80000D03EE7002654E74946891A8846C145AB
:1011E800BF41F11A7F42C91B0F0261D447460F4322
:1011F80000D1BDE00E00474651E6B54CA04500D1F0
:1012080000E10127382900DDB8E6802424042643BC
:10121800A3E6B04EE41A16407B0700D03FE743E749
:101228000F001800203FF8408446202903D04027AB
:10123800791A8B401A43531E9A41634617001F437D
:1012480022E6A448E11A10404707C00807E734001F
:101258004846044300D1FAE04C1E012900D1D7E0EA
:101268009B4FB94200D1E2E00127382C00DD4FE75F
:1012780021003CE7964CA14200D1DDE04A444A45B2
:101288008041F31840421818C70752081743460808
:10129800520705D00F220C003A40042A00D02CE651
:1012A8007607FF0837430009D9E600270026E8E655
:1012B8004946571ABA4292419E1B52426546B61A8F
:1012C800EDE5002900D0C6E0002F67D18026002573
:1012D8007F4C3603D5E665460C001E00D008E4E6D0
:1012E8004A444A458041F318404218181100030245
:1012F80000D496E0774B49081840C3070B434408CD
:10130800490700D129E10F221A40042A00D1EAE056
:101318001F1D9F42B641764236190224C4E649464B
:101328008F1AB9458041F61A4042361A330206D45C
:101338007307FF0801211F43F00890E66546012462
:10134800ABE54B467707D8080743F008B4E60F002B
:101358001800203FF8408446202903D04027791AF6
:101368008B401A43531E9A41634617001F4335E6C4
:1013780000250024002684E60C003500203CE540CA
:10138800202905D04024611A8E40494631438946B8
:101398004846411E884107002F43EFE5D2085F0702
:1013A80065461743D80887E6171ABA4292419E1B2A
:1013B8005242B61A3302C1D47307FF0865460121A9
:1013C8001F43F0084BE6002F7BD065461E00914670
:1013D8003FE6811A8846C145A441F11A6442091BB7
:1013E80080242404214277D0101A824292410700B7
:1013F8009E1B5242B61A374300D0A0E0654600242F
:1014080000263EE65F07D20865461743D80853E62C
:10141800811891429241F01852428018030200D577
:1014280068E74707C9080F43C008012117E6D20833
:101438005F071743D8083FE60C000026002720E680
:10144800002956D15F07D2081743D80834E60C00A4
:101458001E00D00829E6C10870070143F008002FD4
:1014680062D080242403204207D0DE08264204D11B
:1014780065463000D1085B0719434F0FC900C908FA
:101488007F070F4318E60C003000203CE0408446FC
:10149800202905D04024611A8E40494631438946A7
:1014A8004846411E8841614607000F4330E6202127
:1014B8000027091A0EE51E00002F00D022E500249F
:1014C80058E7002500240026DBE5C046FE0700009B
:1014D800FF070000FFFF7FFF47460F4300D147E7A4
:1014E8000E00C146B5E5DF0864070221274300095D
:1014F800B5E51900C008770707431143F00800292C
:1015080000D1D9E580210903084207D0DC080C4244
:1015180004D1D2085B071A43170020007B0FFF0095
:10152800FF085B071F43C7E50F00C5E5124BD2084C
:1015380033405F075B02012417431E0BA1E52642D7
:1015480012D00D4B6546020001241E40E6E421003E
:1015580085E51700A8E53A00D4E4DB0864071C43D6
:101568002700022100097AE5C00877070743654686
:101578000021F00873E5C046FFFF7FFFF0B5DE46A7
:10158800454657464E46E0B587B0009201930B0397
:101598001B0B9B46CA0F4B00040080465B0D029252
:1015A80000D198E07C4A934237D05946420FC9008F
:1015B8000A43802109041143C2009046774A8946AC
:1015C80092469A44002300240393009E019F3B0304
:1015D8001B0B9B467B0030005B0DFD0F002B59D089
:1015E8006D4A934248D05946720FC9000A43802178
:1015F800090411438B466949F2008C4651466344FD
:10160800CB1A9A460021029E6E40F6B20F2C00D9E2
:10161800CEE0634BA4001B599F465A4602439146AD
:1016280000D090E09A460223904608240393CCE722
:10163800CB464246029D0399022900D1DEE10329E7
:1016480000D18DE0012900D079E12E00002200238D
:10165800002490461B052343F607334340461900F0
:1016680007B0F0BCBB46B246A946A046F0BD002272
:1016780000249046484BEDE75A46009B1A43494BD5
:101688009C46E244002A59D102231C43002302212C
:101698009B46B8E75A46009B1A4349D05B46002B45
:1016A80000D19CE1584601F08BFB020003000B3A85
:1016B8001D27009EBA1A19005846D6400839884096
:1016C800320002439346009A8A40374953448A4677
:1016D80000219A4497E75B460343994621D05B462D
:1016E800002B00D169E1584601F06AFB0B235B42ED
:1016F8009C460200844466461D239B1B260011005D
:101708005846DE4008398840330003439946230091
:101718008B409846254B00249B1A9A460023039336
:1017280053E7002398469A460133042403934CE771
:1017380001231C43002301219B4664E70323320055
:1017480003211C435FE79A460323D9460C240393DD
:101758003BE700238024984600260F4B240379E7B3
:1017680080245B4624031C4324032E0090460A4B26
:10177800240B6FE780244B462403234202D05B46A8
:101788002342F0D080244B4624031C432403029EAA
:10179800014B240B5EE7C046FF07000001FCFFFF7A
:1017A80030C2000801F8FFFFF30300000DFCFFFF43
:1017B800CB4500D2F8E000D1F3E001235B429C4620
:1017C800444648460025E2445B46170E1B021F4369
:1017D800190C3B04120200971F0C914602910397C3
:1017E800FEF72CFD02007A430B04210C80461943B6
:1017F8008A4209D9009F0123BC465B4261449C464A
:10180800E0448F4200D85CE1881A0299FEF716FD81
:10181800039A240442430904240C03000C43A24203
:1018280006D90099013B8C466444A14200D842E1A4
:10183800A01A424612041A4393464B4659461B0CBB
:101848001F0004930B0449460904090C0C001B0CE7
:101858005C43120C7B43884651437A43270CBC46B1
:101868005B186344994203D9802149028C4662443B
:10187800190C24041B04240C8A181C19904202D346
:1018880016D1A54214D25B46009F013B4D440593F7
:101898004D459B41BC465B426344C018874200D318
:1018A80002E1824200D929E100D124E1059B9B464F
:1018B8002C1BA542AD41009B801A6D42401B834200
:1018C80000D10FE10299FEF7B9FC039A0B044243D9
:1018D800210C050019438A4200D9CBE0881A0299E5
:1018E800FEF7ACFC039A240442430904240C0300C9
:1018F8000C43A24200D9CAE04146A41A2A041A435A
:10190800049F13041B0C594340467B439C46150C0B
:1019180068430B0C844463447D43984203D9802078
:10192800400284466544180C09041B04090C40193C
:101938005B18844227D323D0012335001A43944BE4
:101948005344002B60DD510700D086E02E00D108FB
:101958005A46D20106D55A468E4B1A4080239346E2
:10196800DB0053448C4A934200DD80E65A46520716
:101978000A4390465A465B055402240B5B0D69E600
:101988003500002BDBD0009D511EAC466444AC42B0
:1019980000D29EE0844200D2E1E000D1EEE00A00ED
:1019A800CAE7424500D908E74B46DC0758084346D2
:1019B8005B081C434346DD0706E701F001FA1523DF
:1019C8009C4684440200634620321C2B00DC92E6CD
:1019D8002300083883409946002398469AE601F088
:1019E800EFF902000300153220331C2A00DC5FE601
:1019F80000990838814000228B4666E600222E00B6
:101A080000249046654B25E62E000121C91A382985
:101A180000DD1BE61F297EDC6148140050445B464C
:101A280082408340CC40501E824123431A435B4688
:101A3800CB40510709D00F211140042905D0111DB1
:101A48009142924152429B180A00190200D49BE02D
:101A58000022012300249046FCE50F2111400429AF
:101A680000D173E7111D9142924152422E00C908DC
:101A780093446DE7009B013D9C4661448B4200D92D
:101A88002CE78A4200D829E7851E614426E7009999
:101A9800013B8C466444A14200D92DE7A24200D8FC
:101AA8002AE7831E644427E7874200D0FEE6A9455B
:101AB80000D9FBE6F5E6A24200D8B9E6831E6444E5
:101AC800B6E68A4200D89FE6BC46831E9846614423
:101AD8009AE60A00844200D02EE74B4500D02BE757
:101AE80035002CE72A4B2F4A5344924543DB012209
:101AF800002193442CE7AC4200D8D7E602235B428E
:101B08009C4600994D444D459B41E3448C465B42BD
:101B18006344C018CCE61F204042C31A5846D84038
:101B2800202904D05946204B534499400A43531E58
:101B38009A4107231900024300241140134209D097
:101B480008331340042B1DD0131D934289411A00FA
:101B580049424907D2080A43904600237AE5494694
:101B6800009F4D004D458941BC4649426144A94604
:101B7800023A6418AEE70122524246E79945EED38D
:101B88000A00AAE70021E5E759075B021C0BE1E719
:101B9800FF030000FFFFFFFEFE070000FF07000035
:101BA8001E04000002FCFFFF3E040000F0B557468B
:101BB800DE464E464546E0B50D000400E80F834674
:101BC8000903D80F090B824619488C461F03690080
:101BD8005E00490D3F0B760D814218D086420FD02A
:101BE8000120B1420DD1BC450BD1944209D1D34556
:101BF8001CD0002905D160462043431E984100E0CF
:101C08000120F0BCBB46B246A946A046F0BD012063
:101C18008E42F6D1614639430F0017432743F0D16E
:101C28005B465246981A431E9841EAE70020E8E7C7
:101C3800FF070000F0B557464E464546DE46E0B57C
:101C48000D000E034900490D8A46DF0FE90FBC4617
:101C580083B02F4F04008046019158001903914624
:101C6800360B090B400DBA451DD0B8420DD057466A
:101C7800002F2AD13443002824D10A4336D0002C1F
:101C880041D163465800013815E0114338D1534615
:101C9800002B01D12643F4D0019B634507D1019B5A
:101CA8005800013807E026432AD1504521D00120A9
:101CB800019B5F42384303B0F0BCBB46B246A9461D
:101CC800A046F0BD002CDCD0E6E70028EFD0019B51
:101CD8006345ECD18245EADCE1DB8E42E7D8DED110
:101CE800C845E4D80020C845E5D2D8E7002CE2D0A2
:101CF800DDE7114304D1019B6345D8D10020DAE721
:101D080002204042D7E7019B6345E6D0CFE7C046B3
:101D1800FF070000F0B557464E464546DE46E0B59B
:101D28000D000E034900490D8A46DF0FE90FBC4636
:101D380083B02E4F04008046019158001903914644
:101D4800360B090B400DBA451ED0B8420DD0574688
:101D5800002F27D13443002833D10A4334D0002C34
:101D680040D163465800013815E0114312D153465B
:101D7800002B01D12643F4D0019B63451DD00120DF
:101D8800019B5F42384306E0264303D15045F6D114
:101D980011431CD0022003B0F0BCBB46B246A94692
:101DA800A046F0BD0028EAD0019B6345E7D18245F3
:101DB800E5DC02DB8E42E2D80ED0019B58000138E8
:101DC800E9E7002CCDD0D7E7002CE4D0D7E7019B7A
:101DD80000206345DFD0D2E7C845D0D80020C845E9
:101DE800D9D2EAE7019B6345E4D0C8E7FF070000C2
:101DF800F0B557464E46DE464546E0B51F000B0394
:101E08001B0B16009A46CA0F4B000400914685B07A
:101E18005B0D00D1CFE1CD4A934255D05146420FD8
:101E2800C9000A43802109041143C2009046C84AE8
:101E38008A4693469B440023002502933C037B007B
:101E4800FA0F0196240B5B0D009200D188E1BF4A7E
:101E5800934200D192E0BE4A944663449B440A2DC3
:101E680042DCE400730F23438024494624041C43C6
:101E7800F3000193009B00205940CBB20393022D3D
:101E880000DC94E00123AB401D00A6232A00DB0000
:101E98001A401D4200D029E290239B001D4200D128
:101EA8004DE20023802499462403A84B10004A469B
:101EB8001B052343D2071343190005B0F0BCBB46EA
:101EC800B246A946A046F0BD52460243904600D00D
:101ED800ACE19B460223924608250293AEE7009B9D
:101EE800A2469946019B9846029B022B00D1CAE163
:101EF800032B00D192E1012B10D1002300240022F2
:101F0800D4E701227B083A4013435246D2071343D1
:101F1800984653465B089A46039B99465B46581C6D
:101F28008023DB005B44002B00DCB1E14246520712
:101F38000BD00F2241460A40042A06D04246111D02
:101F4800414592418846524292445246D20106D5B2
:101F58005246804B1A4080239246DB00C3187E4AC3
:101F6800934200DD8FE14246D108524652070A43A8
:101F780051465B054C02240B5B0D97E7734B2643D8
:101F88009C46E344002E00D16FE1032349461D43DC
:101F9800009B5940CBB203930A2D00DD33E10123A6
:101FA800AB401D000323029388222A4297D1424660
:101FB80043461204120C160001981D0C030C000471
:101FC800000C4643B4461E006E43009616000700F8
:101FD8005E436146B0466F430E0CB8444644B74270
:101FE80005D9802149028846009F474400976146E9
:101FF8000904090C370C36048C4631006144019100
:102008001100260C2404240C61438C4621006943EA
:1020180089466146090C884672434A4442447543DE
:10202800914503D98021490288464544110C8846C8
:1020380061460904090C8C4612046244B9180291DD
:102048005146090C8C4651460F043F0C3900414358
:1020580045448846614641438A4641466046090CE4
:10206800894658437B4353444B449A4503D98021BE
:10207800490289464844190C894641460904090C15
:102088008846390061431B044344884661464C43F3
:1020980071438C46414677430E0C3F19F619484464
:1020A800B44203D9802149028946CC440299009F51
:1020B800894631044F4489464146974292410C046F
:1020C800240C4C44FF1852426419A1189F429B41AA
:1020D800884682465B42994690459241AC42A4416B
:1020E800C244D14452426442144399459B418245BB
:1020F80092415B42524213434A46360CA419E318F4
:1021080063445B02D20D1A43019992467A020A434C
:10211800501E8241FF0D17434A4652021743B846E4
:10212800DB0100D5EDE60D4B039A5B449146002B8D
:1021380000DCACE03A00520700D110E70F22584605
:102148003A40042A00D0F9E609E7C046FF07000034
:1021580001FCFFFFFFFFFFFEFE070000FF0300007A
:10216800220032436FD0002C00D1C2E0200000F0E2
:1021780027FE020003000B3A1D20821A30001900C6
:10218800D04008398C400200224334008C40594624
:10219800CB1A86498B469B440A2D00DDA4E64946A6
:1021A800009B01945940CBB2140000200393022DE8
:1021B80000DD67E6FBE65346034398463CD05346AA
:1021C800002B00D1A3E0504600F0FAFD0B235B4240
:1021D8009C460200844411005046083988401D235B
:1021E800804660461B1A2000D8400300404603433F
:1021F8009A4623008B4098466C4B00259B1A9B46B9
:10220800002302931AE60F2D00D0C9E0802352461E
:102218001B031A4202D01C4200D192E0802453468C
:1022280024031C4324034246240B3EE69B46032317
:1022380080460C25029301E600239A469B4601330B
:1022480004250293FAE501210D430A2D00DD4BE632
:10225800494600984140C9B20391022D00DC96E03E
:1022680000230024012001930CE649460223009A2A
:102278002B435140CAB203920A2B00DD34E6002DED
:1022880057D1039B994600240022494B0EE6584635
:102298000121C91A382900DD2FE61F2956DD1F2222
:1022A80054465242D31ADC40202907D0414B4246BB
:1022B8009C465346604483401A4390464246072151
:1022C800531E9A410B00224313400024114209D0A7
:1022D8000F231340042B5DD0111D91429B410A002E
:1022E8005B425B07D2081A430023DFE5039B99464C
:1022F800FAE5019800F064FD02000300153220336E
:102308001C2A00DC38E7019A083882403FE700F0D1
:1023180057FD15239C4684440200634620321C2B3B
:1023280000DC58E7002398462300083883409A4683
:1023380062E71D000023002402200193A2E5029019
:1023480032E61C43009B019A9946AEE51A4B524669
:10235800C31840469A40C84002434046984003008C
:10236800581E834154461A43CC40530709D00F23C3
:102378001340042B05D0131D934292415242A418D6
:102388001A00230208D50123002400228EE589467D
:1023980000248BE50023A5E763076402240BA1E76B
:1023A800009BA2469946019B984637E70DFCFFFF24
:1023B800FF0700003E0400001E040000F0B5574669
:1023C8004E464546DE46E0B583B0009001910C03C9
:1023D8004D00CE0F610A009C5F00640F0C4300990A
:1023E80000920193C80019037B0D9946019BCC4FBD
:1023F800DB0F9C464B0A00998046490F1943009B06
:102408008B46DA0092466D0DB94500D1BFE0012335
:10241800614659404B468C46EB1A8E4275D0002BCC
:1024280000DCA3E24946002900D1CEE0BD4200D13C
:1024380000E20127382B19DC802759463F0439432D
:102448008B461F2B00DDFAE12027F91A8C465946E6
:102458006746B9400F001100D9400F4361468A40D2
:10246800511E8A415946D9401743641AC71BB842BE
:1024780080414042241A230200D440E16402640AE5
:10248800002C00D154E1200000F09AFC0300083B26
:1024980020213800CA1AD0409C4002009F402243A5
:1024A8009D4200DDA6E1581B0130091A3C008F400F
:1024B800C4407B1E9F4113008B4027431F43C240EB
:1024C8003B0014000025134300D1F7E17B0700D13E
:1024D80077E30F2338003B40042B04D0381DB84263
:1024E800BF417F42E419230200D468E38C4B0135D5
:1024F8009D4200D1F4E08B4B6D051C406D0D6707C4
:10250800C00864020743240BECE0002B00DC29E33D
:102518004946002900D0D6E05946114300D12EE1A2
:10252800591E012B00D1E6E1BB4200D182E101270F
:102538000B00382914DC1F2B00DD3CE22027F91A98
:102548008C4659466746B9400F001100D9400F43E1
:1025580061468A40511E8A415946D940174364183A
:102568003F188742804140422418230200D4C6E025
:102578006B4B01359D4200D1B2E00121694B7A08CD
:102588001C4039400A43E707174364089EE7664B37
:1025980011438A46EB18002928D066452CD0002B19
:1025A8005BD0002D00D12CE15B4666465F07D20860
:1025B8001743DD083B002B4300D1E2E080242403CD
:1025C8002C432403564D240B8CE05946114300D16B
:1025D800D5E0591E012B00D1B9E1BB4200D1B1E1D0
:1025E80001270B00382900DD40E72AE7614601276B
:1025F80079408C466645D2D1002B00D1C5E0002D2C
:1026080000D055E14B462500054300D112E2591E82
:102618008C46012B00D149E2414DAB4200D18FE2FB
:102628000127382911DC63461F2B00DD5BE2614678
:10263800202327005B1A050098409F40CD40431E89
:102648009841CC402F430743A344BF189742924177
:1026580052425A4414004D4687E7344F6B1C3B42A4
:1026680000D0B6E05946230011430F000343002D64
:1026780000D026E1002B00D1C0E1002900D1A1E063
:10268800831A98465B464045AD41E31A6D425B1B91
:1026980080252D042B4200D14BE15B46101A824263
:1026A80092411C1B0700012663465242A41A274385
:1026B8001E40002F00D142E12C4200D16DE2194B9F
:1026C80001251C401BE7BD4200D13BE10127382B07
:1026D80000DD45E7802759463F0439438B462AE702
:1026E800002400272D052543F60735433800290027
:1026F80003B0F0BCBB46B246A946A046F0BD7B0776
:1027080004D00F233B40042B00D0E7E62B00F80849
:10271800034A67070743E508934200D14AE7A5E063
:10272800FF070000FFFF7FFF01F8FFFFFE07000023
:10273800380000F045FB030018331F2B00DCA7E628
:102748003A00083882409D4200DD8AE05B1B581C35
:102758001F2800DCD8E117001F3BDF40202805D0E8
:1027680040231B1A9A40531E9A4117430025002FF5
:1027780000D1E5E07B0700D0ABE62C00C6E7C00837
:10278800C6E700270024D14DACE7D14F6B1C3B4274
:1027980071D123000343002D00D04EE15746002B92
:1027A80000D1B5E1002F0DD08318834280415C44ED
:1027B80040422418220200D5C8E11F00984627434A
:1027C80000D1BCE043466707DB081F43E508002348
:1027D8004CE0831A98465B464045BF41E31A7F4266
:1027E800DB1B1F027CD447461F4300D1A6E01C0018
:1027F800474645E6B74CED1A14407B0700D080E702
:1028080084E74B462500054366D05F1E012B00D1A7
:10281800FCE0AE4DAB4200D15EE16646382F00DCED
:10282800B4E00120171ABA4292415B4652424D4623
:102838009C1A20E66707C0080743E508BAE61F00A8
:102848005946203FF9400F00202B05D04021CB1AD4
:10285800594699400A43924653465A1E93411F438C
:1028680004E6EB1A9B4D15406F07ED082C035D0538
:10287800240B6D0D36E7954DAB4200D1D6E082189A
:10288800210082428041594440420818C707520833
:1028980017434408520700D485E10F221D003A402F
:1028A800042A00D01AE6FF08640727430509DDE774
:1028B8005B46D2085F071743DD087BE60027002444
:1028C80010E7002B00D0D6E0002900D02FE18024AB
:1028D80000267E4D240305E766465C46D00817E7C8
:1028E8005B46171ABA4292411C1B012663465242A4
:1028F800A41A1E40C4E58318834280415C444042C8
:1029080025182A0200D4DAE0724A5B081540EA0763
:102918001A4369085B0700D44AE10F231340042BCC
:1029280000D1FCE0171D9742A441644202256418B7
:10293800ECE647461C001F4300D043E7002600256D
:102948000024CFE6C00867070743E50832E6871A80
:102958005B46B8428041E41A4042241A230228D434
:102968006307FF081F43E50801237FE7002B00D119
:1029780073E64B465F1B3B00002D00D142E7382F22
:1029880000DDECE080230E001B041C431F2F25DC18
:1029980020252300ED1B0100A840AB40F940451E4F
:1029A800A8410B43FC4018435B461B1B9B4639E779
:1029B8006646012562E51F005946203FF9408C46CE
:1029C800202B05D040275946FB1A99400A439246C6
:1029D80057467B1E9F4163461F43C1E53B002500C8
:1029E800203BDD40202F04D04023DB1B9C402043AC
:1029F80080464046431E9841284313E700299DD04E
:102A0800012663465C4690461E40DBE6171A5B4685
:102A1800BA4292411C1B5242A41A2302C8D463072B
:102A2800FF081F4366460123E5081FE71D00002431
:102A3800002757E65C46D0086AE6002B00D137E746
:102A48005346C00867070743E508002B00D1B1E5E6
:102A580080231B031D4208D05946C808184204D1D8
:102A6800D20849070A43170005007B0FFF00FF083B
:102A78005B071F439EE5C00863071843E508002964
:102A880053D080231B031D420AD05946CC081C4250
:102A980006D1012663462500D008490708431E4091
:102AA800470FC000C0087F07074383E58318934298
:102AB80092415C445242A5182A0200D524E76F07C8
:102AC800DB081F43ED080123D0E6C046FF070000DE
:102AD800FE070000FFFF7FFF5B46D2085F076646E0
:102AE8001743DD0866E52500203BDD406346202BC3
:102AF80005D0402361465B1A9C40204380464746E8
:102B08007B1E9F412F43A0E520210027091AD2E40C
:102B1800002F00D113E75C4617000025F6E5D7081B
:102B2800490702230F432D09A0E6070042E55B464B
:102B380001265F07DD086346D20817431E4039E5C2
:102B48005B46D2085F071743DD0833E51E4ADB08FA
:102B580022405707520201251F43140BC2E50E00FD
:102B680001205FE6002B0DD04B465B1B9C46002DD9
:102B780000D148E50127382B00DD66E580231B04DA
:102B88001C4350E56B1C114D2B4200D073E659468F
:102B9800230011438A46034300E66707C008002361
:102BA8000743E50862E66407FF08274305095DE671
:102BB800D208490711430F0002232D0956E60700E2
:102BC800A4E538008FE4C046FFFF7FFFFE07000042
:102BD800F0B5C6461E03360BB0460D4E0C034D002D
:102BE8005F0000B5240B6D0D7F0DB5420BD0084971
:102BF80000208F4204D1464616433000431E9841B8
:102C080080BCB846F0BD04430120002CF8D1EEE7A3
:102C1800FF0700000B00020070B5164D0C0382B0D0
:102C28004900002000920193240B490DDE0FA942B0
:102C380004DD1148814203DD104BF01802B070BD6D
:102C48008020400320430E4C641A1F2C08DD0D4BD6
:102C58005B1AD84003005842002EEFD11800EDE768
:102C6800094B009A9C46030061448B40E2401343A1
:102C7800F1E7C046FE0300001D040000FFFFFF7FD0
:102C88003304000013040000EDFBFFFF70B50028BB
:102C980016D0C317C5185D40C40F280000F090F87F
:102CA800104B1B1A5B055B0D0A2814DC02002E0072
:102CB800153296400B22121AD5402D032D0B03E036
:102CC80000240023002500261B052B43E40723438B
:102CD8003000190070BD0B3885402D0300262D0BE0
:102CE800F2E7C0461E04000010B5041E10D000F024
:102CF80067F80E4B1B1A5B055B0D0A280FDC0B22CD
:102D08002100121AD14015300A038440120B01E049
:102D1800002300221B0513432000190010BD2200C8
:102D28000B38824012030024120BF3E71E04000044
:102D380070B542024300C40FFE201B0E591C550AF1
:102D480008420CD0E02189008C466D07120B6344C1
:102D58001B051343E40723432800190070BD002B0B
:102D680014D1002D1BD0280000F02AF80A281CDCFA
:102D78000B232A001B1ADA40030015339D400E4B23
:102D880012031B1A5B05120B5B0DE1E7002D09D03E
:102D9800130B802212031A436D07084BD8E7002350
:102DA8000022D5E70022054BD2E703002A000B3B9F
:102DB8009A400025E3E7C04689030000FF070000AA
:102DC8001C2101231B04984201D3000C10391B0A53
:102DD800984201D3000A08391B09984201D3000917
:102DE800043902A2105C40187047C046040302026E
:102DF80001010101000000000000000010B50029D9
:102E080003D1FFF7DDFF203002E00800FFF7D8FF0D
:102E180010BDC046B0B592B000AF01F049FA00F05D
:102E280097F800F09FF900F069F900F029F900F02F
:102E3800E9F8FA235B00180001F0C0FA384939486C
:102E48003223142203F07AFA364B374A374C802162
:102E58008800210000F074FC3549324832231622DC
:102E680003F06CFA082000F00BFD32492D4832239C
:102E7800172203F063FA372000F002FD2E49294893
:102E88003223172203F05AFA3B2000F0F9FC2B49B1
:102E980024483223172203F051FA3A2000F0F0FCBC
:102EA8002749204832232D2203F048FA24257B198C
:102EB800244A13CA13C313CA13C303CA03C311880A
:102EC800198092789A703B001F4A13CA13C313CA19
:102ED80013C303CA03C312881A807919114832230D
:102EE800232203F02BFA122000F0CAFC39000D4807
:102EF8003223222203F022FA144B0022DA61122034
:102F080000F0BEFCA023DB050221180001F0A5FD9E
:102F1800FA239B00180001F051FAC046F2E7C046B8
:102F280000000020DC07002078070020000800507F
:102F380020BF000838BF000850BF000868BF00085D
:102F480080BF0008ACBF0008D0BF000814070020ED
:102F580090B593B000AF14243B19180034231A001D
:102F6800002104F065FB3B1D180010231A00002106
:102F780004F05EFB80239B00180001F089FD3B19DB
:102F880002221A603B1980225200DA6021007B1865
:102F980000221A617B1840225A617B180222DA61EA
:102FA8007B1802221A627B1800225A627B180822B8
:102FB8009A627B1880229202DA627B18802292053C
:102FC8001A637B18180001F0AFFD031E01D000F052
:102FD80059F93B1D07221A603B1D02225A603B1D0E
:102FE80000229A603B1D0022DA603B1D0221180076
:102FF80002F0AAF8031E01D000F044F9C046BD460D
:1030080013B090BD80B500AF1B4B1C4A1A601A4B19
:10301800822252005A60184B00229A60164BE02216
:10302800D200DA60144B00221A61134B00225A6155
:10303800114B802292009A610F4B3822DA610E4BB5
:1030480000221A620C4B00225A620B4B00229A6231
:10305800094B0722DA62084B00221A63064B00224A
:103068005A63054B180002F019FA031E01D000F04C
:1030780009F9C046BD4680BD140700200030014054
:1030880080B500AF1B4B1C4A1A601A4B82225200B3
:103098005A60184B00229A60164BE022D200DA6080
:1030A800144B00221A61134B00225A61114B8022E3
:1030B80092009A610F4B3822DA610E4B00221A6295
:1030C8000C4B00225A620B4B00229A62094B0722D2
:1030D800DA62084B00221A63064B00225A63054B3A
:1030E800180002F0DBF9031E01D000F0CBF8C0464F
:1030F800BD4680BD780700200038004080B500AF8D
:10310800164B174A1A60154BE12252025A60134BAC
:1031180000229A60114B0022DA60104B00221A61DB
:103128000E4B0C225A610D4B00229A610B4B002268
:10313800DA610A4B00221A62084B00225A62074BD6
:1031480000229A62054B180003F0A2F8031E01D072
:1031580000F098F8C046BD4680BDC046DC07002098
:10316800004C004090B589B000AF0C243B19180002
:1031780014231A00002104F05BFA2E4B5A6B2D4BD6
:1031880004210A435A632B4B5B6B04221340BB6038
:10319800BB68284B5A6B274B01210A435A63254BBE
:1031A8005B6B012213407B607B68224B5A6B214B7F
:1031B80002210A435A631F4B5B6B022213403B6098
:1031C8003B68A023DB0500220A21180001F028FC37
:1031D80080239B0018480022190001F021FC3B19AC
:1031E8000A221A603B1901225A603B1900229A6090
:1031F8003B190022DA603A19A023DB0511001800F8
:1032080001F0AAFA21007B18802292001A607B182C
:1032180001225A607B1800229A607B180122DA602A
:103228007B18054A1900100001F096FAC046BD4601
:1032380009B090BD001002400008005080B582B06F
:1032480000AF786000F004F8C046BD4602B080BD0B
:1032580080B582B000AF00237B600BE0A023DB05C4
:103268000221180001F0F9FB0A2001F0A7F87B6899
:1032780001337B607B68092BF0DDC046C046BD4644
:1032880002B080BD80B500AF72B6C046C046FDE74B
:1032980080B582B000AF0F4B1A6C0E4B01210A4368
:1032A8001A640C4B1B6C012213407B607B68094B32
:1032B800DA6B084B802149050A43DA63054BDA6B60
:1032C80080235B0513403B603B68C046BD4602B0A7
:1032D80080BDC0460010024090B58DB000AF786048
:1032E8001C243B19180014231A00002104F0A0F92B
:1032F8007B681B68484A934231D1484B1A6C474B4C
:10330800802149010A431A64444B1A6C80235B01EB
:103318001340BB61BB69414B5A6B404B01210A43C7
:103328005A633E4B5B6B012213407B617B69210032
:103338007B1864221A607B1802225A607B180022CC
:103348009A607B180022DA607B1800221A617A18CA
:10335800A023DB051100180001F0FEF957E07B6897
:103368001B682F4A934252D12C4BDA6B2B4B80218E
:10337800C9010A43DA63294BDA6B8023DB01134066
:103388003B613B69254B5A6B244B04210A435A6322
:10339800224B5B6B04221340FB60FB681F4B5A6B8C
:1033A8001E4B02210A435A631C4B5B6B02221340DB
:1033B800BB60BB681C243B190C221A603B19022213
:1033C8005A603B1900229A603B190222DA603B19C5
:1033D80001221A613B19134A1900100001F0BCF9C7
:1033E80021007B18802292011A607B1802225A6001
:1033F8007B1800229A607B180222DA607B18002270
:103408001A617B18084A1900100001F0A5F9C04696
:10341800BD460DB090BDC0460030014000100240CE
:1034280000380040000800500004005090B58BB0F0
:1034380000AF786014243B19180014231A000021E7
:1034480004F0F6F87B681B68304A93425AD1304B37
:10345800DA6B2F4B802109030A43DA632C4BDA6BB2
:1034680080231B0313403B613B69294B5A6B284B54
:1034780004210A435A63264B5B6B04221340FB600A
:10348800FB68234B5A6B224B01210A435A63204B9A
:103498005B6B01221340BB60BB683B1980221201A1
:1034A8001A603B1902225A603B1900229A603B19A4
:1034B8000022DA603B1901221A613B19154A1900EA
:1034C800100001F049F921007B1801221A607B18CD
:1034D80002225A607B1800229A607B180022DA6068
:1034E8007B1804221A617A18A023DB051100180042
:1034F80001F032F9002202211D2001F02FF81D20D1
:1035080001F041F8C046BD460BB090BD004C0040EC
:10351800001002400008005080B500AFC046FDE72B
:1035280080B500AFC046FDE780B500AFC046BD46D8
:1035380080BD80B500AFC046BD4680BD80B500AF38
:1035480000F020FFC046BD4680BD000080B500AF3A
:10355800034B180002F0A0FFC046BD4680BDC04620
:10356800DC07002080B500AF01231800BD4680BDF0
:1035780080B582B000AF7860396004F0AFF803001E
:1035880016221A6001235B421800BD4602B080BDB6
:1035980080B582B000AF786001235A427B68110081
:1035A8001800FFF7E5FFC046FDE780B586B000AF1D
:1035B800F860B9607A6000237B610AE000E000BF30
:1035C8000100BB685A1CBA60CAB21A707B69013321
:1035D8007B617A697B689A42F0DB7B681800BD469C
:1035E80006B080BD80B586B000AFF860B9607A607B
:1035F80000237B6109E0BB685A1CBA601B7818007D
:1036080000E000BF7B6901337B617A697B689A427D
:10361800F1DB7B681800BD4606B080BD80B582B07E
:1036280000AF786001235B421800BD4602B080BD40
:1036380080B582B000AF786039603B688022920123
:103648005A6000231800BD4602B080BD80B582B024
:1036580000AF786001231800BD4602B080BD80B578
:1036680084B000AFF860B9607A6000231800BD46E6
:1036780004B080BD80B586B000AF7860144A154BA1
:10368800D31A7B617B693B61134B1B68002B02D10A
:10369800114B124A1A60104B1A687B68D3183A69A2
:1036A8009A4207D204F01AF803000C221A60012388
:1036B8005B4209E0084B1B68FB60074B1A687B6894
:1036C800D218054B1A60FB681800BD4606B080BDCD
:1036D800009000200004000070080020980D0020D1
:1036E80080B500AFC046BD4680BD00000D48854688
:1036F800FFF7F6FF0C480D490D4A002302E0D458A5
:10370800C4500433C4188C42F9D30A4A0A4C002323
:1037180001E013600432A242FBD303F0E5FFFFF798
:1037280079FBFEE70090002000000020F80600204A
:1037380080C70008F8060020980D0020FEE700006A
:1037480090B58BB002AFB9607A603B600E243B192C
:10375800021C1A80414B3A1912881A803F4BBA68EA
:103768005A603E4B7A689A603C4B3A68DA60FA20B5
:1037780000F024FE3B191988BB680122180001F0EB
:103788004FF9364BD868364932230B2202F0D6FD62
:103798000023FB6108E0334978680A23012201F01D
:1037A80035FFFB690133FB61FB690C2BF3DD2B4B08
:1037B800D8682D493223152202F0C0FD1423FB18C6
:1037C8002A4A1168196092889A8039E0322000F0FC
:1037D800F5FD0E23FB181988BB680022180001F0BC
:1037E8001FF91423F91878686423062201F00EFFE4
:1037F8001A4BD8681E493223142202F09FFD1D4A35
:103808001849786832230093012302F097F91A4B7C
:103818001B780133DAB2184B1A70164B1B78FF2B42
:1038280003D1154B1B781E2BE9D1134B00221A70BC
:103838000E23FB181988BB680122180001F0F0F864
:103848000C4B1B78012BC1D10C4938686423112219
:1038580002F074FDC046BD4609B090BD780A00204C
:10386800F4BF00081800002000C000083CC0000891
:1038780014C00008750800207408002028C000083B
:10388800F0B5DFB006AF0200D74BB02149005B1896
:10389800DB191A70D44B5B18DB191B783B2B01D949
:1038A80000F0EDFC9A00D14BD3181B689F46D04B13
:1038B8005868CF4B1B889BB20022190001F0B0F862
:1038C800CB4B9868CB496423062201F09FFE002366
:1038D800AE225200BA18136028E0C54B9868C64A51
:1038E800C64932230093012302F028F9C24B1B7802
:1038F800FF2B14D0C04B1B78C14A3C243819322105
:1039080003F014FE0300FC22B9180B60B84BD8680A
:10391800BB181B689AB23919642302F00FFDAE2256
:103928005200BB181B680133BA181360AE235B0042
:10393800FB181B68092BD0DDAD4B5868AC4B1B88B6
:103948009BB20122190001F06BF800F09BFCC42324
:10395800FB18FF221A70BC243B19AA4A1168196087
:1039680092889A80B423FB18A74A11681960928834
:103978009A809F4B58689E4B1B889BB20022190067
:1039880001F04EF89A4B986839196423062201F021
:103998003DFE974B9868C5243A19C423F918642347
:1039A8000093012302F0CAF82200BB181B78FF2BF2
:1039B800EFD0BB181B78954A3C257819402103F0B5
:1039C800B5FD8B4BDC687B191800FCF795FB0300F1
:1039D8009AB279196423200002F0B0FC844B9868ED
:1039E800B423F9186423062201F010FE804B98686E
:1039F800C5257A19C423F91864230093012302F01A
:103A08009DF87B191B78FF2BF0D07B191B78804A17
:103A18003C26B819402103F089FD754BDC68BB19B9
:103A28001800FCF769FB03009AB2B9196423200057
:103A380002F084FC7B191B78002B08D06C4BD868EB
:103A4800744964230E2202F079FC00F01BFC724BCF
:103A5800AC225200BA181360654B9868C5243A190D
:103A6800C423F91864230093012302F067F83B1973
:103A78001B78FE2B0AD0AC225200BB181B68013BF6
:103A8800B9180B60BB181B68002BE5D1AC235B0091
:103A9800FB181B68002B08D1554BD8685F49642375
:103AA8000F2202F04BFC00F0EDFB514BD8685C494B
:103AB80064230C2202F042FC00F076FC030086220C
:103AC8005200BA1813600023AA225200BA181360D1
:103AD80011E0474B986880239B00524AC42179180B
:103AE8006424009402F02AF8AA225200BB181B682A
:103AF8000133BA181360AA235B00FB181A688023E5
:103B08005B029A42E5DB00F04FFC03001800FDF76A
:103B180029F9041C86235B00FB181868FDF722F9B5
:103B2800031C191C201CFCF7B9FE031C3E49181C79
:103B3800FCF79EFD031C84225200B9180B60BB18C9
:103B48001868FFF7F5F802000B00384908243819FF
:103B5800009201930A00322103F0E8FC03007A1D69
:103B6800FF321360224BD8687B1DFF331B689AB263
:103B78003919642302F0E2FB1D4B9868294AC424D2
:103B8800391964230093022301F0D8FF184B5868B1
:103B9800174B1B889BB20122190000F041FF144B00
:103BA800986839196423012201F030FD6AE3F02492
:103BB8003B191F4A1A6000229A800D4B58680C4B1B
:103BC8001B889BB20022190000F02AFF084B986856
:103BD80039196423062201F019FD0023A822520096
:103BE800BA1813604FE0C046A7FEFFFFD8C200080E
:103BF800780A0020D0C200087508002018000020AC
:103C080044C0000884C100088CC1000858C00008DE
:103C180070C0000888C00008A086010098C000088D
:103C2800A8C000087808002000007A44B8C000083E
:103C380041002000D34B9868D34AD44932230093DB
:103C4800012301F07BFFD04B1B78FF2B14D0CE4B08
:103C58001B78CF4A3C243819322103F067FC030053
:103C6800F822B9180B60C74BD868BB181B689AB202
:103C78003919642302F062FBA8225200BB181B68A2
:103C88000133BA181360A8235B00FB181B68092BC3
:103C9800D0DDBC4B5868BB4B1B889BB20122190076
:103CA80000F0BEFEEEE2E8243B194D221A60002225
:103CB8009A80B44B5868B34B1B889BB200221900FA
:103CC80000F0AEFEAF4B986839196423062201F064
:103CD8009DFC0023A6225200BA18136029E0A94BC4
:103CE8009868A94AA94932230093012301F026FFC5
:103CF800A54B1B78FF2B15D0A34B1B78A54A3C245A
:103D08003819322103F012FC03007A1CFF321360C9
:103D18009C4BD8687B1CFF331B689AB23919642303
:103D280002F00CFBA6225200BB181B680133BA181C
:103D38001360A6235B00FB181B680E2BCFDD914B8D
:103D48005868904B1B889BB20122190000F068FE4E
:103D580098E2E0243B197A221A6000229A80894B63
:103D68005868884B1B889BB20022190000F058FE47
:103D7800844B986839196423062201F047FC002314
:103D8800A4225200BA18136029E07E4B98687E4A34
:103D98007E4932230093012301F0D0FE7A4B1B7831
:103DA800FF2B15D0784B1B787B4A3C2438193221DD
:103DB80003F0BCFB030094225200B9180B60714B4E
:103DC800D868BB181B689AB23919642302F0B6FA8E
:103DD800A4225200BB181B680133BA181360A4232D
:103DE8005B00FB181B680E2BCFDD664B5868654BD4
:103DF8001B889BB20122190000F012FE42E2D8246F
:103E08003B197B221A6000229A805E4B58685D4BF2
:103E18001B889BB20022190000F002FE594B9868DB
:103E280039196423062201F0F1FB0023A222520073
:103E3800BA18136029E0534B9868534A5349322300
:103E48000093012301F07AFE4F4B1B78FF2B15D00E
:103E58004D4B1B78514A3C243819322103F066FB3C
:103E6800030096225200B9180B60464BD868BB185D
:103E78001B689AB23919642302F060FAA222520030
:103E8800BB181B680133BA181360A2235B00FB1828
:103E98001B680E2BCFDD3B4B58683A4B1B889BB2F7
:103EA8000122190000F0BCFDECE1D723FB18FF222A
:103EB8001A70344B5868334B1B889BB20022190088
:103EC80000F0AEFDAC243B19354A116819609288A0
:103ED8009A802C4B986839190A23062201F096FB20
:103EE8000023A0225200BA1813600EE0254B9868F0
:103EF800D723F9180A23012201F0DAFCA022520084
:103F0800BB181B680133BA181360A0235B00FB18A9
:103F18001B68092B04DCD723FB181B78FF2BE5D083
:103F2800184B5868174B1B889BB20122190000F0E8
:103F380077FD144B98681B490A23012201F066FBA0
:103F4800104B58680F4B1B889BB20022190000F0D9
:103F580067FDA4243B19144A1168196092889A8055
:103F6800084B986839190A23062201F04FFBD7231A
:103F7800FB18FF221A7000239E225200BA18136001
:103F880023E0C046780A00207508002018000020A9
:103F9800D8C00008ECC0000800C1000814C100081F
:103FA80094C10008190000209CC10008B74B98680C
:103FB800D723F9180A23012201F07AFC9E22520025
:103FC800BB181B680133BA1813609E235B00FB18EB
:103FD8001B68092B04DCD723FB181B78FF2BE5D0C3
:103FE800AA4B5868A94B1B889BB20122190000F004
:103FF80017FDA64B9868A6490A23012201F006FB83
:10400800D723FB181B78002B00D052E73AE1D024C5
:104018003B19A04A1168196092889A80C823FB1836
:104028009D4A1168196092889A8093235B00FB1857
:10403800802212011A8000239C225200BA181360B1
:10404800924B5868914B1B889BB20022190000F0D4
:10405800E7FC8E4B986839196423062201F0D6FADA
:10406800031E00D00DE100239A225200BA181360F3
:1040780011E0864B986889490A23012201F018FC4F
:10408800864B1B78002B0DD09A225200BB181B6858
:104098000133BA1813609A235B00FB181B68092BBD
:1040A800E7DD00E0C0467D4B1B78002B10D0774B36
:1040B800D8687B4964230E2202F040F9734B586894
:1040C800724B1B889BB20122190000F0A9FCD9E0B1
:1040D80000F06AF9030090225200BA181360002316
:1040E80098225200BA18136049E0C723FB18FF2230
:1040F8001A7000F059F903008E225200BA181360A2
:1041080007E0624B9868C723F9180123012201F0E0
:10411800CFFBC723FB181B78FE2B0BD000F044F90C
:1041280002008E235B00FB181B68D21AFA235B007F
:104138009A42E6D3C723FB181B78FE2B10D1534BAA
:10414800986880239A005749642301F0B1FB4F4BCC
:104158009868A023F9186423022201F0A9FB07E05C
:104168009C225200BB181B680133BA18136010E078
:1041780098225200BB181B680133BA1813609323A6
:104188005B00FB181B8898225200BA1812689A42E2
:10419800ABDB3E4B9868C823F9186423062201F06C
:1041A80035FA3A4B98683D490A23012201F080FB11
:1041B800364B986839490A23012201F079FB00F04F
:1041C800F3F803008C2464003A1913602F4B5868E5
:1041D8002E4B1B889BB20122190000F021FCC6213E
:1041E8007B18FF221A70294B986879180A23012234
:1041F80001F00CFA3B191A6890235B00FB181B6846
:10420800D31A1800FCF7AEFD031C2749181CFCF74D
:104218002FFA031C8A267600BA191360BB1918688E
:10422800FEF786FD04000D00BB1919688820C0053B
:10423800FCF71EFA031C181CFEF77AFD02000B009F
:104248001A493C26B819049205939C235B00FB1875
:104258001B680293009401950A00642103F066F933
:10426800030088225200B9180B60084BD868BB18A5
:104278001B689AB2B919C82302F060F802E0C04678
:1042880000E0C046C046BD4659B0F0BD780A0020DF
:1042980019000020A4C10008ACC10008750800205E
:1042A80028C100087808002000007A4438C10008B6
:1042B80080B582B000AFFB1D00221A700B4B1A6844
:1042C8000A4B802149000A431A60002000F010F8C8
:1042D800031E03D0FB1D01221A7001E0FEF7D8FF70
:1042E800FB1D1B781800BD4602B080BD00200240AF
:1042F80090B585B000AF78600F23FB1800221A70C4
:104308001D4B1B78002B2BD01C4B1C681A4B1B78A1
:104318001900FA239800FBF70BFF0300190020008F
:10432800FBF706FF0300180000F03DF9031E12D149
:104338007B68032B0AD8796801235B4200221800A6
:1043480000F00CF90E4B7A681A600DE00F23FB1889
:1043580001221A7008E00F23FB1801221A7003E0EB
:104368000F23FB1801221A700F23FB181B78180063
:10437800BD4605B090BDC0462000002014000020B6
:104388001C00002080B500AF054B1B781A00054BB8
:104398001B68D218034B1A60C046BD4680BDC04694
:1043A80020000020880A002080B500AF024B1B685F
:1043B8001800BD4680BDC046880A002080B584B07C
:1043C80000AF7860FFF7F0FF0300BB607B68FB601D
:1043D800FB68013305D00A4B1B781A00FB689B1851
:1043E800FB60C046FFF7E0FF0200BB68D31AFA681B
:1043F8009A42F7D8C046C046BD4604B080BDC04604
:104408002000002080B582B000AF0200FB1D1A70AA
:10441800FB1D1B787F2B09D8FB1D1B781A001F2357
:104428001A40044B012191400A001A60C046BD465B
:1044380002B080BD00E100E090B583B000AF02009B
:104448003960FB1D1A70FB1D1B787F2B28D82F4A5B
:10445800FB1D1B785BB29B08C0339B009B58FA1D61
:104468001278110003220A40D200FF2191400A006D
:10447800D2431A4011003B689B01FF221A40FB1DE2
:104488001B78180003230340DB009A401F48FB1DDC
:104498001B785BB29B080A43C0339B001A5031E07B
:1044A8001B4AFB1D1B7819000F230B40083B9B0878
:1044B80006339B00D31804331B68FA1D12781100C9
:1044C80003220A40D200FF2191400A00D2431A4039
:1044D80011003B689B01FF221A40FB1D1B78180046
:1044E80003230340DB009A400948FB1D1B781C008E
:1044F8000F232340083B9B080A4306339B00C3183D
:1045080004331A60C046BD4603B090BD00E100E028
:1045180000ED00E080B582B000AF78607B685A1E7D
:1045280080235B049A4201D3012310E00A4B7A6886
:10453800013A5A6001235B4203211800FFF77CFF10
:10454800054B00229A60044B07221A6000231800CA
:10455800BD4602B080BDC04610E000E080B584B022
:1045680000AFB9607A600F217B18021C1A70BA6814
:104578007B181B785BB211001800FFF75DFFC0467F
:10458800BD4604B080BD80B582B000AF0200FB1DFF
:104598001A70FB1D1B785BB21800FFF733FFC0468B
:1045A800BD4602B080BD80B582B000AF78607B6840
:1045B8001800FFF7AFFF03001800BD4602B080BD2A
:1045C80080B582B000AF78607B68002B01D10123F1
:1045D80050E07B6825229B5CDBB2022B08D07B680D
:1045E8000422DA637B68242200219954012341E0E4
:1045F8007B681B681A687B681B6801218A431A60FC
:104608007B681B681A687B681B680E218A431A60DE
:104618007B685B6C1A687B685B6C18490A401A6097
:10462800174B59687B681B6C1C22134001229A4067
:10463800134B0A435A607B689B6C7A68D26C5A6049
:104648007B681B6D002B0CD07B681B6D1A687B6820
:104658001B6D0A490A401A607B685B6D7A68926D27
:104668005A607B682522012199547B682422002105
:10467800995400231800BD4602B080BDFFFEFFFF1D
:104688000000024080B584B000AF78600F217B182D
:1046980000221A707B6825229B5CDBB2022B06D0B5
:1046A8007B680422DA637B1801221A7049E07B6870
:1046B8001B681A687B681B6801218A431A607B683B
:1046C8001B681A687B681B680E218A431A607B681E
:1046D8005B6C1A687B685B6C1D490A401A601D4B4D
:1046E80059687B681B6C1C22134001229A40194BA5
:1046F8000A435A607B689B6C7A68D26C5A607B6804
:104708001B6D002B0CD07B681B6D1A687B681B6DBA
:104718000F490A401A607B685B6D7A68926D5A602F
:104728007B682522012199547B6824220021995411
:104738007B689B6B002B04D07B689B6B7A681000AE
:1047480098470F23FB181B781800BD4604B080BD9E
:10475800FFFEFFFF0000024080B586B000AF786022
:10476800396000237B6147E13B681B6801217A6956
:1047780091400A001340FB60FB68002B00D138E130
:104788003B685B6803221340012B05D03B685B68DC
:1047980003221340022B30D17B689B683B617B6905
:1047A8005B0003229A401300DA433B6913403B61E4
:1047B8003B68DA687B695B009A4013003A691343E7
:1047C8003B617B683A699A607B685B683B61012260
:1047D8007B699A401300DA433B6913403B613B68AD
:1047E8005B681B0901221A407B699A4013003A69E9
:1047F80013433B617B683A695A603B685B680322F4
:104808001340032B17D07B68DB683B617B695B0037
:1048180003229A401300DA433B6913403B613B682B
:104828009A687B695B009A4013003A6913433B61BD
:104838007B683A69DA603B685B6803221340022BA5
:1048480023D17B69DA087B6808329200D3583B6130
:104858007B69072213409B000F229A401300DA431A
:104868003B6913403B613B681A697B6907210B4030
:104878009B009A4013003A6913433B617B69DA084D
:104888007B68083292003969D1507B681B683B61AC
:104898007B695B0003229A401300DA433B691340AB
:1048A8003B613B685B6803221A407B695B009A4066
:1048B80013003A6913433B617B683A691A603B68A5
:1048C8005A68C0239B02134000D192E0504A7B698A
:1048D8009B0818339B009B583B617B69032213405C
:1048E800DB000F229A401300DA433B6913403B6117
:1048F8007A68A023DB059A4213D07B68454A934225
:104908000DD07B68444A934207D07B68434A934260
:1049180001D1032306E0052304E0022302E001237A
:1049280000E000237A6903210A40D20093403A69E3
:1049380013433B6136497B699B0818339B003A69EE
:104948005A50334B1B683B61FB68DA433B691340A1
:104958003B613B685A6880235B03134003D03A6984
:10496800FB6813433B612A4B3A691A60284B5B6822
:104978003B61FB68DA433B6913403B613B685A681B
:1049880080239B03134003D03A69FB6813433B61C0
:104998001F4B3A695A601E4A8423D3583B61FB680F
:1049A800DA433B6913403B613B685A6880239B02AA
:1049B800134003D03A69FB6813433B6114498422CE
:1049C8003B698B50124A8023D3583B61FB68DA431A
:1049D8003B6913403B613B685A6880235B02134084
:1049E80003D03A69FB6813433B61094980223B695C
:1049F8008B507B6901337B613B681A687B69DA40BD
:104A0800131E00D0B0E6C046C046BD4606B080BD05
:104A1800001802400004005000080050000C00502C
:104A280080B582B000AF786008001100BB1C021C82
:104A38001A807B1C0A1C1A707B1C1B78002B04D064
:104A4800BB1C1A887B689A6103E0BB1C1A887B68C8
:104A58009A62C046BD4602B080BD80B584B000AF42
:104A680078600A00BB1C1A807B685B69FB60BB1C12
:104A78001B88FA6813401A04FB68DB43B91C0988D1
:104A88000B401A437B689A61C046BD4604B080BD9E
:104A980080B584B000AF7860194B1B68194A134081
:104AA8001900174B7A680A431A607A6880239B00BA
:104AB8009A421FD1144B1A6813005B009B185B00C5
:104AC80012491800FBF734FB03000133FB6008E0D0
:104AD800FB68002B03D0FB68013BFB6001E003236C
:104AE80009E0074B5A698023DB001A408023DB006A
:104AF8009A42EDD000231800BD4604B080BDC046E0
:104B080000700040FFF9FFFF1400002040420F0032
:104B180080B500AF034B9A68E023DB01134018000F
:104B2800BD4680BD0010024080B588B000AF7860F7
:104B38007B68002B01D10123F3E27B681B6801220B
:104B4800134000D17CE0C34B9B6838221340BB6103
:104B5800C04BDB68032213407B61BB69102B02D179
:104B68007B69032B02D0BB69082B0BD1B94B1A68A0
:104B780080239B02134062D07B685B68002B5ED168
:104B88000123CEE27B685A6880235B029A4207D1F0
:104B9800B04B1A68AF4B802149020A431A6020E0E3
:104BA8007B685A68A023DB029A420ED1A94B1A6887
:104BB800A84B8021C9020A431A60A64B1A68A54B64
:104BC800802149020A431A600BE0A24B1A68A14BE4
:104BD800A1490A401A609F4B1A689E4B9F490A4098
:104BE8001A607B685B68002B14D0FFF7DDFB0300BD
:104BF8003B6108E0FFF7D8FB02003B69D31A642B3E
:104C080001D903238DE2934B1A6880239B0213403A
:104C1800F0D015E0FFF7C8FB03003B6108E0FFF7A1
:104C2800C3FB02003B69D31A642B01D9032378E242
:104C3800884B1A6880239B021340F0D100E0C046DD
:104C48007B681B680222134000D199E0814B9B6866
:104C580038221340BB617F4BDB68032213407B6122
:104C6800BB69102B02D17B69022B02D0BB69002BD8
:104C780035D1784B1A688023DB00134005D07B6858
:104C8800DB68002B01D101234BE2724B5B68744A4D
:104C9800134019007B685B691A026E4B0A435A601D
:104CA800BB69002B12D16B4B1B686E4A134019006D
:104CB8007B681A69674B0A431A60664B1B68DB0AF4
:104CC80007221340684ADA40684B1A60684B1B6831
:104CD8001800FFF70DFB031E51D0012321E27B686A
:104CE800DB68002B30D05B4B1B685E4A1340190011
:104CF8007B681A69574B0A431A60564B1A68554B1A
:104D0800802149000A431A60FFF74EFB03003B610C
:104D180008E0FFF749FB02003B69D31A022B01D9CF
:104D28000323FEE14B4B1A688023DB001340F0D0CD
:104D3800484B5B684A4A134019007B685B691A0252
:104D4800444B0A435A601BE0424B1A68414B49499D
:104D58000A401A60FFF728FB03003B6108E0FFF7F1
:104D680023FB02003B69D31A022B01D90323D8E1A4
:104D7800384B1A688023DB001340F0D100E0C046AE
:104D88007B681B680822134047D0324B9B68382247
:104D98001340182B0AD12F4B1B6E022213403CD014
:104DA8007B689B69002B38D10123BAE17B689B693A
:104DB800002B19D0274B1A6E264B01210A431A667D
:104DC800FFF7F2FA03003B6108E0FFF7EDFA020093
:104DD8003B69D31A022B01D90323A2E11D4B1B6E99
:104DE80002221340F1D018E01A4B1A6E194B012118
:104DF8008A431A66FFF7D8FA03003B6108E0FFF719
:104E0800D3FA02003B69D31A022B01D9032388E1A4
:104E1800104B1B6E02221340F1D17B681B680422E1
:104E2800134000D1C6E01F23FB1800221A70094B5B
:104E38009B6838221340202B1ED1064BDB6D0222C3
:104E4800134000D1B6E07B689B68002B00D0B1E02E
:104E5800012366E100100240FFFFFEFFFFFFFBFF9A
:104E6800FF80FFFFFFC7FFFF0024F40014000020AD
:104E78001C000020FFFEFFFFAC4BDA6B80235B05B4
:104E8800134001D1012300E00023002B11D0A74BD0
:104E9800DA6BA64B802149050A43DA63A34BDA6B28
:104EA80080235B051340FB60FB681F23FB1801226E
:104EB8001A709F4B1A6880235B0013401AD19C4BD1
:104EC8001A689B4B802149000A431A60FFF76CFA65
:104ED80003003B6108E0FFF767FA02003B69D31A59
:104EE800022B01D903231CE1914B1A6880235B0034
:104EF8001340F0D07B689B68012B06D18B4BDA6D91
:104F08008A4B01210A43DA651CE07B689B68052B04
:104F18000CD1864BDA6D854B04210A43DA65834B45
:104F2800DA6D824B01210A43DA650BE07F4BDA6DBB
:104F38007E4B01218A43DA657C4BDA6D7B4B042179
:104F48008A43DA657B689B68002B14D0FFF72CFA3C
:104F580003003B6109E0FFF727FA02003B69D31A17
:104F6800744A934201D90323DBE0704BDB6D0222C4
:104F78001340F0D013E0FFF717FA03003B6109E094
:104F8800FFF712FA02003B69D31A6A4A934201D921
:104F98000323C6E0654BDB6D02221340F0D11F23CB
:104FA800FB181B78012B05D1604BDA6B5F4B62490C
:104FB8000A40DA637B68DB69002B00D1B0E05B4B09
:104FC8009B6838221340102B00D178E07B68DB699E
:104FD800022B53D1554B1A68544B58490A401A6052
:104FE800FFF7E2F903003B6108E0FFF7DDF9020093
:104FF8003B69D31A022B01D9032392E04B4B1A6861
:1050080080239B041340F0D1484BDB684C4A134083
:1050180019007B681A6A7B685B6A1A437B689B6A1B
:105028001B021A437B68DB6A1A437B681B6B1A43B3
:105038003E4B0A43DA603D4B1A683C4B80214904D9
:105048000A431A60394BDA68384B802149050A430C
:10505800DA60FFF7A9F903003B6108E0FFF7A4F95C
:1050680002003B69D31A022B01D9032359E02F4BC5
:105078001A6880239B041340F0D051E02B4B1A6828
:105088002A4B2E490A401A60FFF78EF903003B614C
:1050980008E0FFF789F902003B69D31A022B01D90E
:1050A80003233EE0214B1A6880239B041340F0D170
:1050B8001E4BDA681D4B23490A40DA6030E07B68F2
:1050C800DB69012B01D101232BE0184BDB687B61E5
:1050D8007B6903221A407B681B6A9A421ED17B694E
:1050E80070221A407B685B6A9A4217D17A69FE235C
:1050F800DB011A407B689B6A1B029A420ED17A69CF
:10510800F8239B031A407B68DB6A9A4206D17B69C5
:105118005B0F5A077B681B6B9A4201D0012300E0A2
:1051280000231800BD4608B080BDC04600100240EC
:105138000070004088130000FFFFFFEFFFFFFFFE35
:105148008C80C11FFCFFFEEF80B584B000AF786093
:1051580039607B68002B01D10123E9E0764B1B689D
:10516800072213403A689A421ED9734B1B680722DC
:1051780093431900704B3A680A431A60FFF714F911
:105188000300FB6009E0FFF70FF90200FB68D31A80
:105198006A4A934201D90323CAE0674B1B68072276
:1051A80013403A689A42EED17B681B68022213408A
:1051B80015D07B681B680422134006D0604B9A68A0
:1051C8005F4BE021C9010A439A605D4B9B685D4AC9
:1051D800134019007B689A68594B0A439A607B68A8
:1051E8001B680122134057D07B685B68012B07D1ED
:1051F800534B1A6880239B0213402BD1012397E05D
:105208007B685B68022B07D14D4B1A6880239B048F
:1052180013401FD101238BE07B685B68002B07D10B
:10522800474B1A688023DB00134013D101237FE02A
:105238007B685B68032B06D1414B1B6E022213402F
:1052480008D1012374E03E4BDB6D0222134001D1EB
:1052580001236DE03A4B9B680722934319007B6852
:105268005A68374B0A439A60FFF79EF80300FB60C1
:1052780009E0FFF799F80200FB68D31A2F4A934216
:1052880001D9032354E02E4B9B6838221A407B68CF
:105298005B68DB009A42ECD1274B1B68072213405E
:1052A8003A689A421ED2244B1B680722934319007E
:1052B800214B3A680A431A60FFF776F80300FB604F
:1052C80009E0FFF771F80200FB68D31A1B4A934202
:1052D80001D903232CE0184B1B68072213403A68B6
:1052E8009A42EED17B681B680422134009D0144B04
:1052F8009B68154A134019007B68DA68104B0A430B
:105308009A6000F029F801000D4B9B681B0A0F22D8
:105318001A400E4B9200D3581F2213400A00DA405D
:105328000B4B1A600B4B1B681800FEF7E1FF0300DC
:105338001800BD4604B080BD00200240881300005C
:1053480000100240FFF0FFFFFF8FFFFF70C2000850
:10535800140000201C00002080B586B000AF3C4B34
:105368009B68382213400FD1394B1B68DB0A072290
:10537800134001229A4013003B6039683548FAF718
:10538800D7FE03003B615DE0314B9B683822134038
:10539800082B02D1304B3B6154E02D4B9B683822DF
:1053A8001340102B38D12A4BDB6803221340FB60D3
:1053B800274BDB681B09072213400133BB60FB68DE
:1053C800032B0DD1B9682448FAF7B2FE030019007F
:1053D8001F4BDB681B0A7F2213404B437B610DE0A8
:1053E800B9681C48FAF7A4FE03001900184BDB68DB
:1053F8001B0A7F2213404B437B61C046144BDB687A
:105408005B0F0722134001337B6079687869FAF7EC
:105418008FFE03003B6115E00D4B9B68382213405B
:10542800202B03D180231B023B610BE0084B9B68B8
:1054380038221340182B03D1FA23DB013B6101E02A
:1054480000233B613B691800BD4606B080BDC046DD
:10545800001002400024F40000127A0080B500AF6A
:10546800024B1B681800BD4680BDC04614000020D2
:10547800B0B500AFFFF7F2FF0400FFF749FB0300E8
:105488001A0B054B9200D3581F221340DC4023000F
:105498001800BD46B0BDC046B0C2000880B584B093
:1054A80000AF78607B68002B01D10123A8E07B68FE
:1054B8005B6A002B09D17B685A6882235B009A4299
:1054C80009D07B680022DA6105E07B6800221A6156
:1054D8007B6800225A617B6800229A627B685D22A1
:1054E8009B5CDBB2002B07D17B685C2200219954BE
:1054F8007B681800FDF7F0FE7B685D220221995455
:105508007B681B681A687B681B6840218A431A609D
:105518007B68DA68E023DB009A4202D90023FB604B
:1055280002E080235B01FB607B68DA68F0231B01E3
:105538009A4208D07B68DA68E023DB009A4202D0FE
:105548007B6800229A627B685A6882235B001A4053
:105558007B68996884231B020B401A437B681B698C
:1055680002210B401A437B685B6901210B401A43F7
:105578007B68996980239B000B401A437B68DB6931
:1055880038210B401A437B681B6A80210B401A4361
:1055980011007B689A6A80239B011A407B681B680C
:1055A8000A431A607B689B691B0C04221A407B68BB
:1055B8005B6A10210B401A437B685B6B08210B4028
:1055C8001A437B68D968F0231B010B401A4311006A
:1055D800FA6880235B011A407B681B680A435A609B
:1055E8007B681B68DA697B681B6807490A40DA61CF
:1055F8007B6800221A667B685D220121995400238A
:105608001800BD4604B080BDFFF7FFFF80B588B025
:1056180000AFF860B9603B60BB1D1A80FEF7C4FE9E
:105628000300FB611A23FB18BA1D12881A80FB6855
:105638005D229B5CDBB2012B01D0022334E1BB6805
:10564800002B03D0BB1D1B88002B01D101232BE1AC
:10565800FB685C229B5C012B01D1022324E1FB68DF
:105668005C2201219954FB685D2203219954FB684F
:1056780000221A66FB68BA689A63FB68BA1D12882A
:105688009A87FB68BA1D1288DA87FB6800221A64B9
:10569800FB68442200219952FB6846220021995256
:1056A800FB6800221A65FB680022DA64FB689A68C6
:1056B80080231B029A4210D1FB681B681A68FB689A
:1056C8001B6840218A431A60FB681B681A68FB68DC
:1056D8001B688021C9010A431A60FB681B681B68A4
:1056E80040221340402B07D0FB681B681A68FB68F0
:1056F8001B6840210A431A60FB68DA68E023DB0074
:105708009A4253D9FB685B68002B04D01A23FB1814
:105718001B88012B44D1FB689B6B1A88FB681B68AC
:10572800DA60FB689B6B9A1CFB689A63FB68DB8FEB
:105738009BB2013B9AB2FB68DA8731E0FB681B68D1
:105748009B6802221340022B12D1FB689B6B1A88BC
:10575800FB681B68DA60FB689B6B9A1CFB689A63A2
:10576800FB68DB8F9BB2013B9AB2FB68DA8717E0D4
:10577800FEF71AFE0200FB69D31A3A689A4202D869
:105788003B68013302D13B68002B09D1FB685D22DD
:1057980001219954FB685C2200219954032383E07A
:1057A800FB68DB8F9BB2002BC8D154E0FB685B68B9
:1057B800002B04D01A23FB181B88012B46D1FB6849
:1057C8009A6BFB681B680C3312781A70FB689B6B2A
:1057D8005A1CFB689A63FB68DB8F9BB2013B9AB249
:1057E800FB68DA8732E0FB681B689B68022213407B
:1057F800022B13D1FB689A6BFB681B680C33127879
:105808001A70FB689B6B5A1CFB689A63FB68DB8FFA
:105818009BB2013B9AB2FB68DA8717E0FEF7C4FD3A
:105828000200FB69D31A3A689A4202D83B680133EE
:1058380002D13B68002B09D1FB685D2201219954F4
:10584800FB685C220021995403232DE0FB68DB8F61
:105858009BB2002BC7D1FA693968FB68180000F0C1
:10586800D1FC031E02D0FB6820221A66FB689B68E5
:10587800002B0AD100237B61FB681B68DB687B6116
:10588800FB681B689B687B617B69FB685D22012163
:105898009954FB685C2200219954FB681B6E002B0D
:1058A80001D0012300E000231800BD4608B080BDE8
:1058B80090B589B002AFF860B9603B60BB1D1A8033
:1058C800FB685D229B5CDBB2012B01D002232CE13B
:1058D800BB68002B03D0BB1D1B88002B01D1012303
:1058E80023E1FB685A6882235B009A4213D1FB6864
:1058F8009B68002B0FD1FB685D2204219954BB1DC6
:105908001C88BA68B968F8683B680093230000F0FF
:1059180015F9030009E1FEF747FD03007B61FB6809
:105928005C229B5C012B01D10223FEE0FB685C2218
:1059380001219954FB685D2204219954FB680022D7
:105948001A66FB68BA681A64FB68BA1D4421128893
:105958005A52FB68BA1D462112885A52FB68002227
:105968009A63FB6800229A87FB680022DA87FB6843
:105978000022DA64FB6800221A65FB68DA68E02313
:10598800DB009A4208D9FB681B685A68FB681B68E9
:1059980068490A405A6008E0FB681B685A68FB6857
:1059A8001B68802149010A435A60FB689A68802372
:1059B8001B029A420FD1FB681B681A68FB681B68B8
:1059C80040218A431A60FB681B681A68FB681B68D9
:1059D80059490A401A60FB681B681B68402213403B
:1059E800402B07D0FB681B681A68FB681B684021BE
:1059F8000A431A60FB68DA68E023DB009A4200D9A0
:105A080073E036E0FB681B689B6801221340012B9A
:105A180017D1FB681B680C331A00FB681B6C1278E3
:105A2800D2B21A70FB681B6C5A1CFB681A64FB68BC
:105A380046229B5A9BB2013B99B2FB684622995277
:105A480017E0FEF7B1FC02007B69D31A3A689A4264
:105A580002D83B68013302D13B68002B09D1FB68AF
:105A68005D2201219954FB685C220021995403238B
:105A78005BE0FB6846229B5A9BB2002BC2D13AE0FE
:105A8800FB681B689B6801221340012B15D1FB683A
:105A98001B68DA68FB681B6C92B21A80FB681B6C87
:105AA8009A1CFB681A64FB6846229B5A9BB2013B0E
:105AB80099B2FB684622995217E0FEF775FC02007E
:105AC8007B69D31A3A689A4202D83B68013302D1FB
